{
  "abi": [
    {
      "inputs": [
        {
          "internalType": "address",
          "name": "_stakeToken",
          "type": "address"
        },
        {
          "internalType": "address",
          "name": "_linkToken",
          "type": "address"
        },
        {
          "internalType": "address",
          "name": "_priceFeed",
          "type": "address"
        },
        {
          "internalType": "address",
          "name": "_priceFeedLinkToken",
          "type": "address"
        },
        {
          "internalType": "uint256",
          "name": "_interesRateForDebt",
          "type": "uint256"
        },
        {
          "internalType": "uint256",
          "name": "_maxPercentForLending",
          "type": "uint256"
        }
      ],
      "stateMutability": "nonpayable",
      "type": "constructor"
    },
    {
      "anonymous": false,
      "inputs": [
        {
          "indexed": true,
          "internalType": "address",
          "name": "previousOwner",
          "type": "address"
        },
        {
          "indexed": true,
          "internalType": "address",
          "name": "newOwner",
          "type": "address"
        }
      ],
      "name": "OwnershipTransferred",
      "type": "event"
    },
    {
      "anonymous": false,
      "inputs": [
        {
          "indexed": true,
          "internalType": "address",
          "name": "_user",
          "type": "address"
        },
        {
          "indexed": false,
          "internalType": "uint256",
          "name": "amountBorrowed",
          "type": "uint256"
        }
      ],
      "name": "eventLendingOf",
      "type": "event"
    },
    {
      "inputs": [],
      "name": "amountOfMicroTokensStaked",
      "outputs": [
        {
          "internalType": "uint256",
          "name": "",
          "type": "uint256"
        }
      ],
      "stateMutability": "view",
      "type": "function"
    },
    {
      "inputs": [
        {
          "internalType": "uint256",
          "name": "_microTokens",
          "type": "uint256"
        }
      ],
      "name": "convertMicroTokensToLink",
      "outputs": [
        {
          "internalType": "uint256",
          "name": "",
          "type": "uint256"
        }
      ],
      "stateMutability": "view",
      "type": "function"
    },
    {
      "inputs": [
        {
          "internalType": "uint256",
          "name": "_lendingPercent",
          "type": "uint256"
        }
      ],
      "name": "getAmountOfLending",
      "outputs": [
        {
          "internalType": "uint256",
          "name": "",
          "type": "uint256"
        }
      ],
      "stateMutability": "view",
      "type": "function"
    },
    {
      "inputs": [],
      "name": "getLatestPrice",
      "outputs": [
        {
          "internalType": "uint256",
          "name": "",
          "type": "uint256"
        }
      ],
      "stateMutability": "view",
      "type": "function"
    },
    {
      "inputs": [
        {
          "internalType": "bool",
          "name": "eth",
          "type": "bool"
        }
      ],
      "name": "getTokenLatestPrice",
      "outputs": [
        {
          "internalType": "uint256",
          "name": "",
          "type": "uint256"
        }
      ],
      "stateMutability": "view",
      "type": "function"
    },
    {
      "inputs": [],
      "name": "interesRateForDebt",
      "outputs": [
        {
          "internalType": "uint256",
          "name": "",
          "type": "uint256"
        }
      ],
      "stateMutability": "view",
      "type": "function"
    },
    {
      "inputs": [
        {
          "internalType": "address",
          "name": "",
          "type": "address"
        }
      ],
      "name": "lendingOf",
      "outputs": [
        {
          "internalType": "uint256",
          "name": "",
          "type": "uint256"
        }
      ],
      "stateMutability": "view",
      "type": "function"
    },
    {
      "inputs": [
        {
          "internalType": "uint256",
          "name": "_lendingPercent",
          "type": "uint256"
        }
      ],
      "name": "lendingProcesser",
      "outputs": [],
      "stateMutability": "nonpayable",
      "type": "function"
    },
    {
      "inputs": [],
      "name": "maxPercentForLending",
      "outputs": [
        {
          "internalType": "uint256",
          "name": "",
          "type": "uint256"
        }
      ],
      "stateMutability": "view",
      "type": "function"
    },
    {
      "inputs": [],
      "name": "owner",
      "outputs": [
        {
          "internalType": "address",
          "name": "",
          "type": "address"
        }
      ],
      "stateMutability": "view",
      "type": "function"
    },
    {
      "inputs": [
        {
          "internalType": "uint256",
          "name": "_amountInUsd",
          "type": "uint256"
        }
      ],
      "name": "priceInLink",
      "outputs": [
        {
          "internalType": "uint256",
          "name": "",
          "type": "uint256"
        }
      ],
      "stateMutability": "view",
      "type": "function"
    },
    {
      "inputs": [
        {
          "internalType": "uint256",
          "name": "_microTokens",
          "type": "uint256"
        }
      ],
      "name": "priceInUsd",
      "outputs": [
        {
          "internalType": "uint256",
          "name": "",
          "type": "uint256"
        }
      ],
      "stateMutability": "view",
      "type": "function"
    },
    {
      "inputs": [],
      "name": "renounceOwnership",
      "outputs": [],
      "stateMutability": "nonpayable",
      "type": "function"
    },
    {
      "inputs": [
        {
          "internalType": "uint256",
          "name": "_partialPayment",
          "type": "uint256"
        }
      ],
      "name": "repay",
      "outputs": [],
      "stateMutability": "nonpayable",
      "type": "function"
    },
    {
      "inputs": [
        {
          "internalType": "uint256",
          "name": "_interesRateForDebt",
          "type": "uint256"
        }
      ],
      "name": "setInteresRateForDebt",
      "outputs": [],
      "stateMutability": "nonpayable",
      "type": "function"
    },
    {
      "inputs": [
        {
          "internalType": "uint256",
          "name": "_maxPercentForLending",
          "type": "uint256"
        }
      ],
      "name": "setMaxPercentForLending",
      "outputs": [],
      "stateMutability": "nonpayable",
      "type": "function"
    },
    {
      "inputs": [
        {
          "internalType": "address",
          "name": "",
          "type": "address"
        }
      ],
      "name": "timeOfLending",
      "outputs": [
        {
          "internalType": "uint256",
          "name": "",
          "type": "uint256"
        }
      ],
      "stateMutability": "view",
      "type": "function"
    },
    {
      "inputs": [],
      "name": "totalDebtAmount",
      "outputs": [
        {
          "internalType": "uint256",
          "name": "",
          "type": "uint256"
        }
      ],
      "stateMutability": "view",
      "type": "function"
    },
    {
      "inputs": [],
      "name": "totalDebtCalculationOfLendingCurrency",
      "outputs": [
        {
          "internalType": "uint256",
          "name": "",
          "type": "uint256"
        }
      ],
      "stateMutability": "nonpayable",
      "type": "function"
    },
    {
      "inputs": [
        {
          "internalType": "address",
          "name": "newOwner",
          "type": "address"
        }
      ],
      "name": "transferOwnership",
      "outputs": [],
      "stateMutability": "nonpayable",
      "type": "function"
    }
  ],
  "bytecode": "60806040523480156200001157600080fd5b5060405162000e6438038062000e6483398101604081905262000034916200017b565b6200003f33620000aa565b600180546001600160a01b038089166001600160a01b031992831617909255600280548884169083161790556003805487841690831617905560048054928616929091169190911790556200009382600655565b6200009e81620000fa565b505050505050620001ea565b600080546001600160a01b038381166001600160a01b0319831681178455604051919092169283917f8be0079c531659141344cd1fd0a4f28419497f9722a3daafe3b4186f6b6457e09190a35050565b6000546001600160a01b03163314620001595760405162461bcd60e51b815260206004820181905260248201527f4f776e61626c653a2063616c6c6572206973206e6f7420746865206f776e6572604482015260640160405180910390fd5b600555565b80516001600160a01b03811681146200017657600080fd5b919050565b60008060008060008060c087890312156200019557600080fd5b620001a0876200015e565b9550620001b0602088016200015e565b9450620001c0604088016200015e565b9350620001d0606088016200015e565b92506080870151915060a087015190509295509295509295565b610c6a80620001fa6000396000f3fe608060405234801561001057600080fd5b506004361061012c5760003560e01c8063715018a6116100ad578063b7be95de11610071578063b7be95de14610238578063c50e02971461024b578063c8dffa951461026b578063eea29e5914610274578063f2fde38b1461028757600080fd5b8063715018a6146101e75780637e6739a3146101ef5780638da5cb5b146102025780638e15f4731461021d578063b1c7bf671461022557600080fd5b80634ce7c199116100f45780634ce7c199146101b257806359a952c9146101ba5780635ec96914146101cd5780635ee363b6146101d6578063654611f1146101de57600080fd5b80631038e4ea1461013157806318b4ba9814610146578063269bd3b614610179578063371fd8e61461018c578063380786ef1461019f575b600080fd5b61014461013f366004610a71565b600655565b005b610166610154366004610a8a565b60086020526000908152604090205481565b6040519081526020015b60405180910390f35b610144610187366004610a71565b61029a565b61014461019a366004610a71565b6102d2565b6101666101ad366004610a71565b6104a4565b6101666104c5565b6101666101c8366004610a71565b610537565b61016660055481565b610166610561565b61016660065481565b6101446105c9565b6101666101fd366004610a71565b6105ff565b6000546040516001600160a01b039091168152602001610170565b61016661061a565b610166610233366004610a71565b61069f565b610166610246366004610ac8565b61072d565b610166610259366004610a8a565b60076020526000908152604090205481565b610166600a5481565b610144610282366004610a71565b610831565b610144610295366004610a8a565b610986565b6000546001600160a01b031633146102cd5760405162461bcd60e51b81526004016102c490610ae5565b60405180910390fd5b600555565b33600090815260076020526040902054806103395760405162461bcd60e51b815260206004820152602160248201527f596f7520646f6e27742068617665206465627420696e207468697320746f6b656044820152603760f91b60648201526084016102c4565b600082116103895760405162461bcd60e51b815260206004820152601c60248201527f546865207061796d656e74206d75737420626520706f7369746976650000000060448201526064016102c4565b6002546001600160a01b03166323b872dd336103ad6000546001600160a01b031690565b6040516001600160e01b031960e085901b1681526001600160a01b03928316600482015291166024820152604481018590526064016020604051808303816000875af1158015610401573d6000803e3d6000fd5b505050506040513d601f19601f820116820180604052508101906104259190610b1a565b508161042f610561565b6104399083610b4d565b6104439190610b60565b3360008181526007602081815260408084209586556008825292839020429055529154915190917fa47123aaa290fade87daa641833b3c06f27f9a79747d1b66bddf422b29c5ece09161049891815260200190565b60405180910390a25050565b6000806104b0836105ff565b905060006104bd82610537565b949350505050565b600154604051635104c81960e01b81523360048201526000916001600160a01b031690635104c81990602401602060405180830381865afa15801561050e573d6000803e3d6000fd5b505050506040513d601f19601f820116820180604052508101906105329190610b73565b905090565b6000610543600061072d565b610551836305f5e100610b8c565b61055b9190610ba3565b92915050565b33600090815260086020526040812054428261057d8383610b60565b336000908152600760205260409020546006549192509064486b6dc0009083906105a79084610b8c565b6105b19190610b8c565b6105bb9190610ba3565b600a81905595945050505050565b6000546001600160a01b031633146105f35760405162461bcd60e51b81526004016102c490610ae5565b6105fd6000610a21565b565b6000650bd2cc61d00061061061061a565b6105519084610b8c565b600080600360009054906101000a90046001600160a01b03166001600160a01b031663feaf968c6040518163ffffffff1660e01b815260040160a060405180830381865afa158015610670573d6000803e3d6000fd5b505050506040513d601f19601f820116820180604052508101906106949190610be4565b509195945050505050565b600060055482106106f25760405162461bcd60e51b815260206004820152601f60248201527f50657263656e7420666f72206c656e64696e672073657420746f20686967680060448201526064016102c4565b60006106fc6104c5565b90506000610709826104a4565b9050600061271061071a8684610b8c565b6107249190610ba3565b95945050505050565b60008082156107ba57600360009054906101000a90046001600160a01b03166001600160a01b031663feaf968c6040518163ffffffff1660e01b815260040160a060405180830381865afa158015610789573d6000803e3d6000fd5b505050506040513d601f19601f820116820180604052508101906107ad9190610be4565b5091935061055b92505050565b6004805460408051633fabe5a360e21b815290516001600160a01b039092169263feaf968c928282019260a092908290030181865afa158015610801573d6000803e3d6000fd5b505050506040513d601f19601f820116820180604052508101906108259190610be4565b50919695505050505050565b600061083c8261069f565b90506000811161089e5760405162461bcd60e51b815260206004820152602760248201527f426f72726f77696e6720616d6f756e74206d7573742067726561746572207468604482015266616e207a65726f60c81b60648201526084016102c4565b6002546001600160a01b03166323b872dd6108c16000546001600160a01b031690565b6040516001600160e01b031960e084901b1681526001600160a01b039091166004820152336024820152604481018490526064016020604051808303816000875af1158015610914573d6000803e3d6000fd5b505050506040513d601f19601f820116820180604052508101906109389190610b1a565b50336000818152600760209081526040808320859055600882529182902042905590518381527fa47123aaa290fade87daa641833b3c06f27f9a79747d1b66bddf422b29c5ece09101610498565b6000546001600160a01b031633146109b05760405162461bcd60e51b81526004016102c490610ae5565b6001600160a01b038116610a155760405162461bcd60e51b815260206004820152602660248201527f4f776e61626c653a206e6577206f776e657220697320746865207a65726f206160448201526564647265737360d01b60648201526084016102c4565b610a1e81610a21565b50565b600080546001600160a01b038381166001600160a01b0319831681178455604051919092169283917f8be0079c531659141344cd1fd0a4f28419497f9722a3daafe3b4186f6b6457e09190a35050565b600060208284031215610a8357600080fd5b5035919050565b600060208284031215610a9c57600080fd5b81356001600160a01b0381168114610ab357600080fd5b9392505050565b8015158114610a1e57600080fd5b600060208284031215610ada57600080fd5b8135610ab381610aba565b6020808252818101527f4f776e61626c653a2063616c6c6572206973206e6f7420746865206f776e6572604082015260600190565b600060208284031215610b2c57600080fd5b8151610ab381610aba565b634e487b7160e01b600052601160045260246000fd5b8082018082111561055b5761055b610b37565b8181038181111561055b5761055b610b37565b600060208284031215610b8557600080fd5b5051919050565b808202811582820484141761055b5761055b610b37565b600082610bc057634e487b7160e01b600052601260045260246000fd5b500490565b805169ffffffffffffffffffff81168114610bdf57600080fd5b919050565b600080600080600060a08688031215610bfc57600080fd5b610c0586610bc5565b9450602086015193506040860151925060608601519150610c2860808701610bc5565b9050929550929590935056fea2646970667358221220b61fe2fbfaa12aba6813ec7e8b12e413b8ef1966e5f29d547df5686c43dfb9aa64736f6c63430008110033",
  "bytecodeSha1": "8a4dfba60e3f3cac76737e6f7244b8e4db9e4835",
  "compiler": {
    "evm_version": "istanbul",
    "optimizer": {
      "enabled": true,
      "runs": 200
    },
    "version": "0.8.17+commit.8df45f5f"
  },
  "contractName": "LendingToken",
  "language": "Solidity",
  "natspec": {
    "kind": "dev",
    "methods": {
      "owner()": {
        "details": "Returns the address of the current owner."
      },
      "renounceOwnership()": {
        "details": "Leaves the contract without owner. It will not be possible to call `onlyOwner` functions anymore. Can only be called by the current owner. NOTE: Renouncing ownership will leave the contract without an owner, thereby removing any functionality that is only available to the owner."
      },
      "transferOwnership(address)": {
        "details": "Transfers ownership of the contract to a new account (`newOwner`). Can only be called by the current owner."
      }
    },
    "version": 1
  },
  "opcodes": "PUSH1 0x80 PUSH1 0x40 MSTORE CALLVALUE DUP1 ISZERO PUSH2 0x10 JUMPI PUSH1 0x0 DUP1 REVERT JUMPDEST POP PUSH1 0x4 CALLDATASIZE LT PUSH2 0x12C JUMPI PUSH1 0x0 CALLDATALOAD PUSH1 0xE0 SHR DUP1 PUSH4 0x715018A6 GT PUSH2 0xAD JUMPI DUP1 PUSH4 0xB7BE95DE GT PUSH2 0x71 JUMPI DUP1 PUSH4 0xB7BE95DE EQ PUSH2 0x238 JUMPI DUP1 PUSH4 0xC50E0297 EQ PUSH2 0x24B JUMPI DUP1 PUSH4 0xC8DFFA95 EQ PUSH2 0x26B JUMPI DUP1 PUSH4 0xEEA29E59 EQ PUSH2 0x274 JUMPI DUP1 PUSH4 0xF2FDE38B EQ PUSH2 0x287 JUMPI PUSH1 0x0 DUP1 REVERT JUMPDEST DUP1 PUSH4 0x715018A6 EQ PUSH2 0x1E7 JUMPI DUP1 PUSH4 0x7E6739A3 EQ PUSH2 0x1EF JUMPI DUP1 PUSH4 0x8DA5CB5B EQ PUSH2 0x202 JUMPI DUP1 PUSH4 0x8E15F473 EQ PUSH2 0x21D JUMPI DUP1 PUSH4 0xB1C7BF67 EQ PUSH2 0x225 JUMPI PUSH1 0x0 DUP1 REVERT JUMPDEST DUP1 PUSH4 0x4CE7C199 GT PUSH2 0xF4 JUMPI DUP1 PUSH4 0x4CE7C199 EQ PUSH2 0x1B2 JUMPI DUP1 PUSH4 0x59A952C9 EQ PUSH2 0x1BA JUMPI DUP1 PUSH4 0x5EC96914 EQ PUSH2 0x1CD JUMPI DUP1 PUSH4 0x5EE363B6 EQ PUSH2 0x1D6 JUMPI DUP1 PUSH4 0x654611F1 EQ PUSH2 0x1DE JUMPI PUSH1 0x0 DUP1 REVERT JUMPDEST DUP1 PUSH4 0x1038E4EA EQ PUSH2 0x131 JUMPI DUP1 PUSH4 0x18B4BA98 EQ PUSH2 0x146 JUMPI DUP1 PUSH4 0x269BD3B6 EQ PUSH2 0x179 JUMPI DUP1 PUSH4 0x371FD8E6 EQ PUSH2 0x18C JUMPI DUP1 PUSH4 0x380786EF EQ PUSH2 0x19F JUMPI JUMPDEST PUSH1 0x0 DUP1 REVERT JUMPDEST PUSH2 0x144 PUSH2 0x13F CALLDATASIZE PUSH1 0x4 PUSH2 0xA71 JUMP JUMPDEST PUSH1 0x6 SSTORE JUMP JUMPDEST STOP JUMPDEST PUSH2 0x166 PUSH2 0x154 CALLDATASIZE PUSH1 0x4 PUSH2 0xA8A JUMP JUMPDEST PUSH1 0x8 PUSH1 0x20 MSTORE PUSH1 0x0 SWAP1 DUP2 MSTORE PUSH1 0x40 SWAP1 KECCAK256 SLOAD DUP2 JUMP JUMPDEST PUSH1 0x40 MLOAD SWAP1 DUP2 MSTORE PUSH1 0x20 ADD JUMPDEST PUSH1 0x40 MLOAD DUP1 SWAP2 SUB SWAP1 RETURN JUMPDEST PUSH2 0x144 PUSH2 0x187 CALLDATASIZE PUSH1 0x4 PUSH2 0xA71 JUMP JUMPDEST PUSH2 0x29A JUMP JUMPDEST PUSH2 0x144 PUSH2 0x19A CALLDATASIZE PUSH1 0x4 PUSH2 0xA71 JUMP JUMPDEST PUSH2 0x2D2 JUMP JUMPDEST PUSH2 0x166 PUSH2 0x1AD CALLDATASIZE PUSH1 0x4 PUSH2 0xA71 JUMP JUMPDEST PUSH2 0x4A4 JUMP JUMPDEST PUSH2 0x166 PUSH2 0x4C5 JUMP JUMPDEST PUSH2 0x166 PUSH2 0x1C8 CALLDATASIZE PUSH1 0x4 PUSH2 0xA71 JUMP JUMPDEST PUSH2 0x537 JUMP JUMPDEST PUSH2 0x166 PUSH1 0x5 SLOAD DUP2 JUMP JUMPDEST PUSH2 0x166 PUSH2 0x561 JUMP JUMPDEST PUSH2 0x166 PUSH1 0x6 SLOAD DUP2 JUMP JUMPDEST PUSH2 0x144 PUSH2 0x5C9 JUMP JUMPDEST PUSH2 0x166 PUSH2 0x1FD CALLDATASIZE PUSH1 0x4 PUSH2 0xA71 JUMP JUMPDEST PUSH2 0x5FF JUMP JUMPDEST PUSH1 0x0 SLOAD PUSH1 0x40 MLOAD PUSH1 0x1 PUSH1 0x1 PUSH1 0xA0 SHL SUB SWAP1 SWAP2 AND DUP2 MSTORE PUSH1 0x20 ADD PUSH2 0x170 JUMP JUMPDEST PUSH2 0x166 PUSH2 0x61A JUMP JUMPDEST PUSH2 0x166 PUSH2 0x233 CALLDATASIZE PUSH1 0x4 PUSH2 0xA71 JUMP JUMPDEST PUSH2 0x69F JUMP JUMPDEST PUSH2 0x166 PUSH2 0x246 CALLDATASIZE PUSH1 0x4 PUSH2 0xAC8 JUMP JUMPDEST PUSH2 0x72D JUMP JUMPDEST PUSH2 0x166 PUSH2 0x259 CALLDATASIZE PUSH1 0x4 PUSH2 0xA8A JUMP JUMPDEST PUSH1 0x7 PUSH1 0x20 MSTORE PUSH1 0x0 SWAP1 DUP2 MSTORE PUSH1 0x40 SWAP1 KECCAK256 SLOAD DUP2 JUMP JUMPDEST PUSH2 0x166 PUSH1 0xA SLOAD DUP2 JUMP JUMPDEST PUSH2 0x144 PUSH2 0x282 CALLDATASIZE PUSH1 0x4 PUSH2 0xA71 JUMP JUMPDEST PUSH2 0x831 JUMP JUMPDEST PUSH2 0x144 PUSH2 0x295 CALLDATASIZE PUSH1 0x4 PUSH2 0xA8A JUMP JUMPDEST PUSH2 0x986 JUMP JUMPDEST PUSH1 0x0 SLOAD PUSH1 0x1 PUSH1 0x1 PUSH1 0xA0 SHL SUB AND CALLER EQ PUSH2 0x2CD JUMPI PUSH1 0x40 MLOAD PUSH3 0x461BCD PUSH1 0xE5 SHL DUP2 MSTORE PUSH1 0x4 ADD PUSH2 0x2C4 SWAP1 PUSH2 0xAE5 JUMP JUMPDEST PUSH1 0x40 MLOAD DUP1 SWAP2 SUB SWAP1 REVERT JUMPDEST PUSH1 0x5 SSTORE JUMP JUMPDEST CALLER PUSH1 0x0 SWAP1 DUP2 MSTORE PUSH1 0x7 PUSH1 0x20 MSTORE PUSH1 0x40 SWAP1 KECCAK256 SLOAD DUP1 PUSH2 0x339 JUMPI PUSH1 0x40 MLOAD PUSH3 0x461BCD PUSH1 0xE5 SHL DUP2 MSTORE PUSH1 0x20 PUSH1 0x4 DUP3 ADD MSTORE PUSH1 0x21 PUSH1 0x24 DUP3 ADD MSTORE PUSH32 0x596F7520646F6E27742068617665206465627420696E207468697320746F6B65 PUSH1 0x44 DUP3 ADD MSTORE PUSH1 0x37 PUSH1 0xF9 SHL PUSH1 0x64 DUP3 ADD MSTORE PUSH1 0x84 ADD PUSH2 0x2C4 JUMP JUMPDEST PUSH1 0x0 DUP3 GT PUSH2 0x389 JUMPI PUSH1 0x40 MLOAD PUSH3 0x461BCD PUSH1 0xE5 SHL DUP2 MSTORE PUSH1 0x20 PUSH1 0x4 DUP3 ADD MSTORE PUSH1 0x1C PUSH1 0x24 DUP3 ADD MSTORE PUSH32 0x546865207061796D656E74206D75737420626520706F73697469766500000000 PUSH1 0x44 DUP3 ADD MSTORE PUSH1 0x64 ADD PUSH2 0x2C4 JUMP JUMPDEST PUSH1 0x2 SLOAD PUSH1 0x1 PUSH1 0x1 PUSH1 0xA0 SHL SUB AND PUSH4 0x23B872DD CALLER PUSH2 0x3AD PUSH1 0x0 SLOAD PUSH1 0x1 PUSH1 0x1 PUSH1 0xA0 SHL SUB AND SWAP1 JUMP JUMPDEST PUSH1 0x40 MLOAD PUSH1 0x1 PUSH1 0x1 PUSH1 0xE0 SHL SUB NOT PUSH1 0xE0 DUP6 SWAP1 SHL AND DUP2 MSTORE PUSH1 0x1 PUSH1 0x1 PUSH1 0xA0 SHL SUB SWAP3 DUP4 AND PUSH1 0x4 DUP3 ADD MSTORE SWAP2 AND PUSH1 0x24 DUP3 ADD MSTORE PUSH1 0x44 DUP2 ADD DUP6 SWAP1 MSTORE PUSH1 0x64 ADD PUSH1 0x20 PUSH1 0x40 MLOAD DUP1 DUP4 SUB DUP2 PUSH1 0x0 DUP8 GAS CALL ISZERO DUP1 ISZERO PUSH2 0x401 JUMPI RETURNDATASIZE PUSH1 0x0 DUP1 RETURNDATACOPY RETURNDATASIZE PUSH1 0x0 REVERT JUMPDEST POP POP POP POP PUSH1 0x40 MLOAD RETURNDATASIZE PUSH1 0x1F NOT PUSH1 0x1F DUP3 ADD AND DUP3 ADD DUP1 PUSH1 0x40 MSTORE POP DUP2 ADD SWAP1 PUSH2 0x425 SWAP2 SWAP1 PUSH2 0xB1A JUMP JUMPDEST POP DUP2 PUSH2 0x42F PUSH2 0x561 JUMP JUMPDEST PUSH2 0x439 SWAP1 DUP4 PUSH2 0xB4D JUMP JUMPDEST PUSH2 0x443 SWAP2 SWAP1 PUSH2 0xB60 JUMP JUMPDEST CALLER PUSH1 0x0 DUP2 DUP2 MSTORE PUSH1 0x7 PUSH1 0x20 DUP2 DUP2 MSTORE PUSH1 0x40 DUP1 DUP5 KECCAK256 SWAP6 DUP7 SSTORE PUSH1 0x8 DUP3 MSTORE SWAP3 DUP4 SWAP1 KECCAK256 TIMESTAMP SWAP1 SSTORE MSTORE SWAP2 SLOAD SWAP2 MLOAD SWAP1 SWAP2 PUSH32 0xA47123AAA290FADE87DAA641833B3C06F27F9A79747D1B66BDDF422B29C5ECE0 SWAP2 PUSH2 0x498 SWAP2 DUP2 MSTORE PUSH1 0x20 ADD SWAP1 JUMP JUMPDEST PUSH1 0x40 MLOAD DUP1 SWAP2 SUB SWAP1 LOG2 POP POP JUMP JUMPDEST PUSH1 0x0 DUP1 PUSH2 0x4B0 DUP4 PUSH2 0x5FF JUMP JUMPDEST SWAP1 POP PUSH1 0x0 PUSH2 0x4BD DUP3 PUSH2 0x537 JUMP JUMPDEST SWAP5 SWAP4 POP POP POP POP JUMP JUMPDEST PUSH1 0x1 SLOAD PUSH1 0x40 MLOAD PUSH4 0x5104C819 PUSH1 0xE0 SHL DUP2 MSTORE CALLER PUSH1 0x4 DUP3 ADD MSTORE PUSH1 0x0 SWAP2 PUSH1 0x1 PUSH1 0x1 PUSH1 0xA0 SHL SUB AND SWAP1 PUSH4 0x5104C819 SWAP1 PUSH1 0x24 ADD PUSH1 0x20 PUSH1 0x40 MLOAD DUP1 DUP4 SUB DUP2 DUP7 GAS STATICCALL ISZERO DUP1 ISZERO PUSH2 0x50E JUMPI RETURNDATASIZE PUSH1 0x0 DUP1 RETURNDATACOPY RETURNDATASIZE PUSH1 0x0 REVERT JUMPDEST POP POP POP POP PUSH1 0x40 MLOAD RETURNDATASIZE PUSH1 0x1F NOT PUSH1 0x1F DUP3 ADD AND DUP3 ADD DUP1 PUSH1 0x40 MSTORE POP DUP2 ADD SWAP1 PUSH2 0x532 SWAP2 SWAP1 PUSH2 0xB73 JUMP JUMPDEST SWAP1 POP SWAP1 JUMP JUMPDEST PUSH1 0x0 PUSH2 0x543 PUSH1 0x0 PUSH2 0x72D JUMP JUMPDEST PUSH2 0x551 DUP4 PUSH4 0x5F5E100 PUSH2 0xB8C JUMP JUMPDEST PUSH2 0x55B SWAP2 SWAP1 PUSH2 0xBA3 JUMP JUMPDEST SWAP3 SWAP2 POP POP JUMP JUMPDEST CALLER PUSH1 0x0 SWAP1 DUP2 MSTORE PUSH1 0x8 PUSH1 0x20 MSTORE PUSH1 0x40 DUP2 KECCAK256 SLOAD TIMESTAMP DUP3 PUSH2 0x57D DUP4 DUP4 PUSH2 0xB60 JUMP JUMPDEST CALLER PUSH1 0x0 SWAP1 DUP2 MSTORE PUSH1 0x7 PUSH1 0x20 MSTORE PUSH1 0x40 SWAP1 KECCAK256 SLOAD PUSH1 0x6 SLOAD SWAP2 SWAP3 POP SWAP1 PUSH5 0x486B6DC000 SWAP1 DUP4 SWAP1 PUSH2 0x5A7 SWAP1 DUP5 PUSH2 0xB8C JUMP JUMPDEST PUSH2 0x5B1 SWAP2 SWAP1 PUSH2 0xB8C JUMP JUMPDEST PUSH2 0x5BB SWAP2 SWAP1 PUSH2 0xBA3 JUMP JUMPDEST PUSH1 0xA DUP2 SWAP1 SSTORE SWAP6 SWAP5 POP POP POP POP POP JUMP JUMPDEST PUSH1 0x0 SLOAD PUSH1 0x1 PUSH1 0x1 PUSH1 0xA0 SHL SUB AND CALLER EQ PUSH2 0x5F3 JUMPI PUSH1 0x40 MLOAD PUSH3 0x461BCD PUSH1 0xE5 SHL DUP2 MSTORE PUSH1 0x4 ADD PUSH2 0x2C4 SWAP1 PUSH2 0xAE5 JUMP JUMPDEST PUSH2 0x5FD PUSH1 0x0 PUSH2 0xA21 JUMP JUMPDEST JUMP JUMPDEST PUSH1 0x0 PUSH6 0xBD2CC61D000 PUSH2 0x610 PUSH2 0x61A JUMP JUMPDEST PUSH2 0x551 SWAP1 DUP5 PUSH2 0xB8C JUMP JUMPDEST PUSH1 0x0 DUP1 PUSH1 0x3 PUSH1 0x0 SWAP1 SLOAD SWAP1 PUSH2 0x100 EXP SWAP1 DIV PUSH1 0x1 PUSH1 0x1 PUSH1 0xA0 SHL SUB AND PUSH1 0x1 PUSH1 0x1 PUSH1 0xA0 SHL SUB AND PUSH4 0xFEAF968C PUSH1 0x40 MLOAD DUP2 PUSH4 0xFFFFFFFF AND PUSH1 0xE0 SHL DUP2 MSTORE PUSH1 0x4 ADD PUSH1 0xA0 PUSH1 0x40 MLOAD DUP1 DUP4 SUB DUP2 DUP7 GAS STATICCALL ISZERO DUP1 ISZERO PUSH2 0x670 JUMPI RETURNDATASIZE PUSH1 0x0 DUP1 RETURNDATACOPY RETURNDATASIZE PUSH1 0x0 REVERT JUMPDEST POP POP POP POP PUSH1 0x40 MLOAD RETURNDATASIZE PUSH1 0x1F NOT PUSH1 0x1F DUP3 ADD AND DUP3 ADD DUP1 PUSH1 0x40 MSTORE POP DUP2 ADD SWAP1 PUSH2 0x694 SWAP2 SWAP1 PUSH2 0xBE4 JUMP JUMPDEST POP SWAP2 SWAP6 SWAP5 POP POP POP POP POP JUMP JUMPDEST PUSH1 0x0 PUSH1 0x5 SLOAD DUP3 LT PUSH2 0x6F2 JUMPI PUSH1 0x40 MLOAD PUSH3 0x461BCD PUSH1 0xE5 SHL DUP2 MSTORE PUSH1 0x20 PUSH1 0x4 DUP3 ADD MSTORE PUSH1 0x1F PUSH1 0x24 DUP3 ADD MSTORE PUSH32 0x50657263656E7420666F72206C656E64696E672073657420746F206869676800 PUSH1 0x44 DUP3 ADD MSTORE PUSH1 0x64 ADD PUSH2 0x2C4 JUMP JUMPDEST PUSH1 0x0 PUSH2 0x6FC PUSH2 0x4C5 JUMP JUMPDEST SWAP1 POP PUSH1 0x0 PUSH2 0x709 DUP3 PUSH2 0x4A4 JUMP JUMPDEST SWAP1 POP PUSH1 0x0 PUSH2 0x2710 PUSH2 0x71A DUP7 DUP5 PUSH2 0xB8C JUMP JUMPDEST PUSH2 0x724 SWAP2 SWAP1 PUSH2 0xBA3 JUMP JUMPDEST SWAP6 SWAP5 POP POP POP POP POP JUMP JUMPDEST PUSH1 0x0 DUP1 DUP3 ISZERO PUSH2 0x7BA JUMPI PUSH1 0x3 PUSH1 0x0 SWAP1 SLOAD SWAP1 PUSH2 0x100 EXP SWAP1 DIV PUSH1 0x1 PUSH1 0x1 PUSH1 0xA0 SHL SUB AND PUSH1 0x1 PUSH1 0x1 PUSH1 0xA0 SHL SUB AND PUSH4 0xFEAF968C PUSH1 0x40 MLOAD DUP2 PUSH4 0xFFFFFFFF AND PUSH1 0xE0 SHL DUP2 MSTORE PUSH1 0x4 ADD PUSH1 0xA0 PUSH1 0x40 MLOAD DUP1 DUP4 SUB DUP2 DUP7 GAS STATICCALL ISZERO DUP1 ISZERO PUSH2 0x789 JUMPI RETURNDATASIZE PUSH1 0x0 DUP1 RETURNDATACOPY RETURNDATASIZE PUSH1 0x0 REVERT JUMPDEST POP POP POP POP PUSH1 0x40 MLOAD RETURNDATASIZE PUSH1 0x1F NOT PUSH1 0x1F DUP3 ADD AND DUP3 ADD DUP1 PUSH1 0x40 MSTORE POP DUP2 ADD SWAP1 PUSH2 0x7AD SWAP2 SWAP1 PUSH2 0xBE4 JUMP JUMPDEST POP SWAP2 SWAP4 POP PUSH2 0x55B SWAP3 POP POP POP JUMP JUMPDEST PUSH1 0x4 DUP1 SLOAD PUSH1 0x40 DUP1 MLOAD PUSH4 0x3FABE5A3 PUSH1 0xE2 SHL DUP2 MSTORE SWAP1 MLOAD PUSH1 0x1 PUSH1 0x1 PUSH1 0xA0 SHL SUB SWAP1 SWAP3 AND SWAP3 PUSH4 0xFEAF968C SWAP3 DUP3 DUP3 ADD SWAP3 PUSH1 0xA0 SWAP3 SWAP1 DUP3 SWAP1 SUB ADD DUP2 DUP7 GAS STATICCALL ISZERO DUP1 ISZERO PUSH2 0x801 JUMPI RETURNDATASIZE PUSH1 0x0 DUP1 RETURNDATACOPY RETURNDATASIZE PUSH1 0x0 REVERT JUMPDEST POP POP POP POP PUSH1 0x40 MLOAD RETURNDATASIZE PUSH1 0x1F NOT PUSH1 0x1F DUP3 ADD AND DUP3 ADD DUP1 PUSH1 0x40 MSTORE POP DUP2 ADD SWAP1 PUSH2 0x825 SWAP2 SWAP1 PUSH2 0xBE4 JUMP JUMPDEST POP SWAP2 SWAP7 SWAP6 POP POP POP POP POP POP JUMP JUMPDEST PUSH1 0x0 PUSH2 0x83C DUP3 PUSH2 0x69F JUMP JUMPDEST SWAP1 POP PUSH1 0x0 DUP2 GT PUSH2 0x89E JUMPI PUSH1 0x40 MLOAD PUSH3 0x461BCD PUSH1 0xE5 SHL DUP2 MSTORE PUSH1 0x20 PUSH1 0x4 DUP3 ADD MSTORE PUSH1 0x27 PUSH1 0x24 DUP3 ADD MSTORE PUSH32 0x426F72726F77696E6720616D6F756E74206D7573742067726561746572207468 PUSH1 0x44 DUP3 ADD MSTORE PUSH7 0x616E207A65726F PUSH1 0xC8 SHL PUSH1 0x64 DUP3 ADD MSTORE PUSH1 0x84 ADD PUSH2 0x2C4 JUMP JUMPDEST PUSH1 0x2 SLOAD PUSH1 0x1 PUSH1 0x1 PUSH1 0xA0 SHL SUB AND PUSH4 0x23B872DD PUSH2 0x8C1 PUSH1 0x0 SLOAD PUSH1 0x1 PUSH1 0x1 PUSH1 0xA0 SHL SUB AND SWAP1 JUMP JUMPDEST PUSH1 0x40 MLOAD PUSH1 0x1 PUSH1 0x1 PUSH1 0xE0 SHL SUB NOT PUSH1 0xE0 DUP5 SWAP1 SHL AND DUP2 MSTORE PUSH1 0x1 PUSH1 0x1 PUSH1 0xA0 SHL SUB SWAP1 SWAP2 AND PUSH1 0x4 DUP3 ADD MSTORE CALLER PUSH1 0x24 DUP3 ADD MSTORE PUSH1 0x44 DUP2 ADD DUP5 SWAP1 MSTORE PUSH1 0x64 ADD PUSH1 0x20 PUSH1 0x40 MLOAD DUP1 DUP4 SUB DUP2 PUSH1 0x0 DUP8 GAS CALL ISZERO DUP1 ISZERO PUSH2 0x914 JUMPI RETURNDATASIZE PUSH1 0x0 DUP1 RETURNDATACOPY RETURNDATASIZE PUSH1 0x0 REVERT JUMPDEST POP POP POP POP PUSH1 0x40 MLOAD RETURNDATASIZE PUSH1 0x1F NOT PUSH1 0x1F DUP3 ADD AND DUP3 ADD DUP1 PUSH1 0x40 MSTORE POP DUP2 ADD SWAP1 PUSH2 0x938 SWAP2 SWAP1 PUSH2 0xB1A JUMP JUMPDEST POP CALLER PUSH1 0x0 DUP2 DUP2 MSTORE PUSH1 0x7 PUSH1 0x20 SWAP1 DUP2 MSTORE PUSH1 0x40 DUP1 DUP4 KECCAK256 DUP6 SWAP1 SSTORE PUSH1 0x8 DUP3 MSTORE SWAP2 DUP3 SWAP1 KECCAK256 TIMESTAMP SWAP1 SSTORE SWAP1 MLOAD DUP4 DUP2 MSTORE PUSH32 0xA47123AAA290FADE87DAA641833B3C06F27F9A79747D1B66BDDF422B29C5ECE0 SWAP2 ADD PUSH2 0x498 JUMP JUMPDEST PUSH1 0x0 SLOAD PUSH1 0x1 PUSH1 0x1 PUSH1 0xA0 SHL SUB AND CALLER EQ PUSH2 0x9B0 JUMPI PUSH1 0x40 MLOAD PUSH3 0x461BCD PUSH1 0xE5 SHL DUP2 MSTORE PUSH1 0x4 ADD PUSH2 0x2C4 SWAP1 PUSH2 0xAE5 JUMP JUMPDEST PUSH1 0x1 PUSH1 0x1 PUSH1 0xA0 SHL SUB DUP2 AND PUSH2 0xA15 JUMPI PUSH1 0x40 MLOAD PUSH3 0x461BCD PUSH1 0xE5 SHL DUP2 MSTORE PUSH1 0x20 PUSH1 0x4 DUP3 ADD MSTORE PUSH1 0x26 PUSH1 0x24 DUP3 ADD MSTORE PUSH32 0x4F776E61626C653A206E6577206F776E657220697320746865207A65726F2061 PUSH1 0x44 DUP3 ADD MSTORE PUSH6 0x646472657373 PUSH1 0xD0 SHL PUSH1 0x64 DUP3 ADD MSTORE PUSH1 0x84 ADD PUSH2 0x2C4 JUMP JUMPDEST PUSH2 0xA1E DUP2 PUSH2 0xA21 JUMP JUMPDEST POP JUMP JUMPDEST PUSH1 0x0 DUP1 SLOAD PUSH1 0x1 PUSH1 0x1 PUSH1 0xA0 SHL SUB DUP4 DUP2 AND PUSH1 0x1 PUSH1 0x1 PUSH1 0xA0 SHL SUB NOT DUP4 AND DUP2 OR DUP5 SSTORE PUSH1 0x40 MLOAD SWAP2 SWAP1 SWAP3 AND SWAP3 DUP4 SWAP2 PUSH32 0x8BE0079C531659141344CD1FD0A4F28419497F9722A3DAAFE3B4186F6B6457E0 SWAP2 SWAP1 LOG3 POP POP JUMP JUMPDEST PUSH1 0x0 PUSH1 0x20 DUP3 DUP5 SUB SLT ISZERO PUSH2 0xA83 JUMPI PUSH1 0x0 DUP1 REVERT JUMPDEST POP CALLDATALOAD SWAP2 SWAP1 POP JUMP JUMPDEST PUSH1 0x0 PUSH1 0x20 DUP3 DUP5 SUB SLT ISZERO PUSH2 0xA9C JUMPI PUSH1 0x0 DUP1 REVERT JUMPDEST DUP2 CALLDATALOAD PUSH1 0x1 PUSH1 0x1 PUSH1 0xA0 SHL SUB DUP2 AND DUP2 EQ PUSH2 0xAB3 JUMPI PUSH1 0x0 DUP1 REVERT JUMPDEST SWAP4 SWAP3 POP POP POP JUMP JUMPDEST DUP1 ISZERO ISZERO DUP2 EQ PUSH2 0xA1E JUMPI PUSH1 0x0 DUP1 REVERT JUMPDEST PUSH1 0x0 PUSH1 0x20 DUP3 DUP5 SUB SLT ISZERO PUSH2 0xADA JUMPI PUSH1 0x0 DUP1 REVERT JUMPDEST DUP2 CALLDATALOAD PUSH2 0xAB3 DUP2 PUSH2 0xABA JUMP JUMPDEST PUSH1 0x20 DUP1 DUP3 MSTORE DUP2 DUP2 ADD MSTORE PUSH32 0x4F776E61626C653A2063616C6C6572206973206E6F7420746865206F776E6572 PUSH1 0x40 DUP3 ADD MSTORE PUSH1 0x60 ADD SWAP1 JUMP JUMPDEST PUSH1 0x0 PUSH1 0x20 DUP3 DUP5 SUB SLT ISZERO PUSH2 0xB2C JUMPI PUSH1 0x0 DUP1 REVERT JUMPDEST DUP2 MLOAD PUSH2 0xAB3 DUP2 PUSH2 0xABA JUMP JUMPDEST PUSH4 0x4E487B71 PUSH1 0xE0 SHL PUSH1 0x0 MSTORE PUSH1 0x11 PUSH1 0x4 MSTORE PUSH1 0x24 PUSH1 0x0 REVERT JUMPDEST DUP1 DUP3 ADD DUP1 DUP3 GT ISZERO PUSH2 0x55B JUMPI PUSH2 0x55B PUSH2 0xB37 JUMP JUMPDEST DUP2 DUP2 SUB DUP2 DUP2 GT ISZERO PUSH2 0x55B JUMPI PUSH2 0x55B PUSH2 0xB37 JUMP JUMPDEST PUSH1 0x0 PUSH1 0x20 DUP3 DUP5 SUB SLT ISZERO PUSH2 0xB85 JUMPI PUSH1 0x0 DUP1 REVERT JUMPDEST POP MLOAD SWAP2 SWAP1 POP JUMP JUMPDEST DUP1 DUP3 MUL DUP2 ISZERO DUP3 DUP3 DIV DUP5 EQ OR PUSH2 0x55B JUMPI PUSH2 0x55B PUSH2 0xB37 JUMP JUMPDEST PUSH1 0x0 DUP3 PUSH2 0xBC0 JUMPI PUSH4 0x4E487B71 PUSH1 0xE0 SHL PUSH1 0x0 MSTORE PUSH1 0x12 PUSH1 0x4 MSTORE PUSH1 0x24 PUSH1 0x0 REVERT JUMPDEST POP DIV SWAP1 JUMP JUMPDEST DUP1 MLOAD PUSH10 0xFFFFFFFFFFFFFFFFFFFF DUP2 AND DUP2 EQ PUSH2 0xBDF JUMPI PUSH1 0x0 DUP1 REVERT JUMPDEST SWAP2 SWAP1 POP JUMP JUMPDEST PUSH1 0x0 DUP1 PUSH1 0x0 DUP1 PUSH1 0x0 PUSH1 0xA0 DUP7 DUP9 SUB SLT ISZERO PUSH2 0xBFC JUMPI PUSH1 0x0 DUP1 REVERT JUMPDEST PUSH2 0xC05 DUP7 PUSH2 0xBC5 JUMP JUMPDEST SWAP5 POP PUSH1 0x20 DUP7 ADD MLOAD SWAP4 POP PUSH1 0x40 DUP7 ADD MLOAD SWAP3 POP PUSH1 0x60 DUP7 ADD MLOAD SWAP2 POP PUSH2 0xC28 PUSH1 0x80 DUP8 ADD PUSH2 0xBC5 JUMP JUMPDEST SWAP1 POP SWAP3 SWAP6 POP SWAP3 SWAP6 SWAP1 SWAP4 POP JUMP INVALID LOG2 PUSH5 0x6970667358 0x22 SLT KECCAK256 0xB6 0x1F 0xE2 0xFB STATICCALL LOG1 0x2A 0xBA PUSH9 0x13EC7E8B12E413B8EF NOT PUSH7 0xE5F29D547DF568 PUSH13 0x43DFB9AA64736F6C6343000811 STOP CALLER ",
  "sha1": "8c5f28f18d8d0504369a38f36544efcb480fd9a5",
  "source": "// SPDX-License-Identifier: MIT\n\npragma solidity >=0.6.0;\n\nimport \"@openzeppelin/contracts/access/Ownable.sol\";\nimport \"@chainlink/contracts/src/v0.6/interfaces/AggregatorV3Interface.sol\";\nimport \"../interfaces/LinkTokenInterface.sol\";\n\n\ninterface IStakeToken{\n    function interestRate() external;\n    function getAmountStaked(address _user) external view returns(uint256);\n}\n\ncontract LendingToken is Ownable{\n    IStakeToken stakeToken;\n    LinkTokenInterface linkToken;\n    AggregatorV3Interface internal priceFeed;   \n    AggregatorV3Interface internal priceFeedLinkToken;\n\n    uint256 public maxPercentForLending;\n    uint256 public interesRateForDebt;\n\n    mapping(address => uint256) public lendingOf;\n    mapping(address => uint256) public timeOfLending;\n    event eventLendingOf(address indexed _user, uint256 amountBorrowed);\n\n\n    constructor(address _stakeToken, address _linkToken, address _priceFeed, address _priceFeedLinkToken, \n                uint256 _interesRateForDebt, uint256 _maxPercentForLending){\n        stakeToken = IStakeToken(_stakeToken);\n        linkToken = LinkTokenInterface(_linkToken);\n        priceFeed = AggregatorV3Interface(_priceFeed);\n        priceFeedLinkToken = AggregatorV3Interface(_priceFeedLinkToken);\n        setInteresRateForDebt(_interesRateForDebt);\n        setMaxPercentForLending(_maxPercentForLending);\n    }\n\n    mapping(bytes32 => address) internal contractAddress;\n\n    /*\n    collateralCurrency = newToken\n    currencyForLending = Link\n    */\n\n    function amountOfMicroTokensStaked() public view returns(uint256){\n        return stakeToken.getAmountStaked(msg.sender);\n    }\n\n    function getAmountOfLending(uint256 _lendingPercent) public view returns(uint256){\n        require(_lendingPercent < maxPercentForLending, \"Percent for lending set to high\");\n        uint256 microTokensStaked = amountOfMicroTokensStaked();\n        uint256 microTokensInLink = convertMicroTokensToLink(microTokensStaked);\n        uint256 amountOfLinksForLending = microTokensInLink * _lendingPercent/10000;\n        return amountOfLinksForLending;\n    }\n\n    function lendingProcesser(uint256 _lendingPercent) public {\n        uint256 amountOfBorrowingToken = getAmountOfLending(_lendingPercent);\n        require(amountOfBorrowingToken > 0, \"Borrowing amount must greater than zero\");\n        linkToken.transferFrom(owner(), msg.sender, amountOfBorrowingToken);\n        lendingOf[msg.sender] = amountOfBorrowingToken;\n        timeOfLending[msg.sender] = block.timestamp;\n        emit eventLendingOf(msg.sender, amountOfBorrowingToken);\n    }\n\n    // For example _maxPercentForLending = 7000 (seventy percent)\n    function setMaxPercentForLending(uint256 _maxPercentForLending) public onlyOwner{\n        maxPercentForLending = _maxPercentForLending;\n    }\n\n\n    function repay(uint256 _partialPayment) public{\n        // uint256 microTokensStaked = stakeToken.getAmountStaked(msg.sender);\n        // require(microTokensStaked > 0, \"You don't have newTokens staked\");\n        uint256 lendingAmount = lendingOf[msg.sender];\n        require( lendingAmount > 0, \"You don't have debt in this token\");\n\n        require(_partialPayment > 0, \"The payment must be positive\");\n\n        // linkToken.transferFrom(msg.sender, address(this), _partialPayment);\n        linkToken.transferFrom(msg.sender, owner(), _partialPayment);\n        lendingOf[msg.sender] = lendingAmount + totalDebtCalculationOfLendingCurrency() - _partialPayment;\n        timeOfLending[msg.sender] = block.timestamp;\n        // emit eventLendingOf(msg.sender, amountOfLinksForLending);\n        emit eventLendingOf(msg.sender, lendingOf[msg.sender] );\n    }\n\n    // function getTime() public view returns(uint256){\n    //     return block.timestamp;\n    // }\n\n    // uint256 public currentTime;\n    uint256 public totalDebtAmount;\n    function totalDebtCalculationOfLendingCurrency() public returns(uint256){\n        uint256 initialTime = timeOfLending[msg.sender];\n        uint256 currentTime = block.timestamp;\n        uint256 deltaTime = (currentTime - initialTime); // 10^5 for taking into account at least one second\n        // uint256 _days = deltaTime / (24*60*60);\n        uint256 amountOfLending = lendingOf[msg.sender];\n        /*\n        r: rate of interest\n        totalDebt = amountOfLending * (1 + r * _days/360)\n\n        if for example r = 0.0135, that is a 1.35%, we must scale r by the factor 10^4 to include at leat\n        two decimal points. Thus if R = r * 10^4, the formula would be:\n\n        totalDebt = amountOfLending * (1 + R * _days/[360*10^4])\n\n        since _days = deltaTime / (24*60*60), we have...\n\n        totalDebt = amountOfLending * (1 + R * [ deltaTime/(24*60*60) ]/[360*10^4])\n\n        // but in the case deltaTime = 1 second, deltaTime/(24*60*60) = 0.000012 which will be rounded to zero.\n        // To avoid this, we must scale deltaTime by the factor 10^5 to take into account at leat 5 decimals.\n        // Thus the formula will be:\n\n        // totalDebt = amountOfLending * (1*10^5 + R * [ deltaTime*10^5/(24*60*60) ]/[360*10^4])\n\n        // then the result will be given in the scale 10^5, thus in the frontend we must divide the \n        // result by 10^5.\n\n        */\n\n      \n        // totalDebtAmount = amountOfLending*(1 + interesRateForDebt * deltaTime/((24*60*60)*(360 * 10**4)));\n        totalDebtAmount = amountOfLending * interesRateForDebt * deltaTime/((24*60*60)*(360 * 10**4));\n        return totalDebtAmount; \n\n    }\n\n    // example _interesRateForDebt = 725 (means 7.25%)\n    function setInteresRateForDebt(uint256 _interesRateForDebt) public {\n        interesRateForDebt = _interesRateForDebt;\n    }\n\n    function getLatestPrice() public view returns(uint256){\n        (,int latestPrice,,,) = priceFeed.latestRoundData();\n        return uint256(latestPrice);\n    }\n\n\n    function getTokenLatestPrice(bool eth) public view returns(uint256){\n        int latestPrice;\n        if(eth){\n            (,latestPrice,,,) = priceFeed.latestRoundData();\n        } else{\n            (,latestPrice,,,) = priceFeedLinkToken.latestRoundData();\n        }\n        return uint256(latestPrice);\n    }\n\n    /*\n    Since our newToken is not listed on the market, we will simulate the newToken price\n    with that of the ethereum divided by 130000. \n\n    Why the number 130000? Since Ethereum has reached a minimum price of 1,300 aproximately in 2022\n    and we want our newToken to begin with 0.01 usd. Thus if we make 1,300/0.01 we get 130,000. \n\n    1*10^18 microTokens --> ([latestPrice/130000]/10^8)  (1) latestPrice is already multiplied by 10^8\n       m    microTokens --> (priceInUsd/10^18)           (2) priceInUsd is already multiplied by 10^18\n\n    Solving for priceInUsd we get:\n    \n        priceInUsd = (m microTokens) * latestPrice / (10^8 * 130000)\n\n    As a way of testing, the price of one newToken will be 0.01 if when latesPrice = 1300*10^8.\n    */\n    \n    function priceInUsd(uint256 _microTokens) public view returns(uint256){\n        return _microTokens*getLatestPrice()/ (130000*10**8);\n    }\n\n    /*\n    When the user stake certain amount of microTokens, he will be able to borrow Link Tokens say up \n    until a 70% of the microTokens in its equivalent in link tokens.\n\n    1*10^18 microLinks --> (latestPrice/10^8)  (1) latestPrice is already multiplied by 10^8\n       m    microLinks --> (priceInUsd/10^18)  (2) priceInUsd is already multiplied by 10^18\n\n    Solving for m microLinks we get:\n\n        m microLinks = 10^8 * priceInUsd / latestPrice\n\n    */\n    function priceInLink(uint256 _amountInUsd) public view returns(uint256){\n        // return 10**8 * _amountInUsd / getTokenLatestPrice(priceFeedLinkToken);\n        return 10**8 * _amountInUsd / getTokenLatestPrice(false);\n    }\n\n    function convertMicroTokensToLink(uint256 _microTokens) public view returns(uint256){\n        uint256 _microTokensInUsd = priceInUsd(_microTokens);\n        uint256 _microTokensInLink = priceInLink(_microTokensInUsd);\n        return _microTokensInLink;\n    }\n\n\n\n\n}",
  "sourcePath": "contracts/LendingToken.sol",
  "type": "contract"
}