{"abi":[{"inputs":[{"internalType":"uint256","name":"_priceInUsd","type":"uint256"},{"internalType":"address","name":"_createTokenAddress","type":"address"},{"internalType":"address","name":"_priceFeed","type":"address"}],"stateMutability":"nonpayable","type":"constructor","name":"constructor"},{"anonymous":false,"inputs":[{"indexed":true,"internalType":"address","name":"previousOwner","type":"address"},{"indexed":true,"internalType":"address","name":"newOwner","type":"address"}],"name":"OwnershipTransferred","type":"event"},{"inputs":[],"name":"getLatestPrice","outputs":[{"internalType":"uint256","name":"","type":"uint256"}],"stateMutability":"view","type":"function"},{"inputs":[],"name":"owner","outputs":[{"internalType":"address","name":"","type":"address"}],"stateMutability":"view","type":"function"},{"inputs":[],"name":"priceInWei","outputs":[{"internalType":"uint256","name":"","type":"uint256"}],"stateMutability":"view","type":"function"},{"inputs":[],"name":"renounceOwnership","outputs":[],"stateMutability":"nonpayable","type":"function"},{"inputs":[{"internalType":"address","name":"newOwner","type":"address"}],"name":"transferOwnership","outputs":[],"stateMutability":"nonpayable","type":"function"},{"inputs":[{"internalType":"uint256","name":"_priceInUsd","type":"uint256"}],"name":"updatePriceInUsd","outputs":[],"stateMutability":"nonpayable","type":"function"}],"bytecode":"608060405234801561001057600080fd5b506040516105df3803806105df83398101604081905261002f91610154565b61003833610085565b600380546001600160a01b03199081166001600160a01b0385811691821790935560018054831690911790556004805490911691831691909117905561007d836100d5565b505050610190565b600080546001600160a01b038381166001600160a01b0319831681178455604051919092169283917f8be0079c531659141344cd1fd0a4f28419497f9722a3daafe3b4186f6b6457e09190a35050565b6000546001600160a01b031633146101335760405162461bcd60e51b815260206004820181905260248201527f4f776e61626c653a2063616c6c6572206973206e6f7420746865206f776e6572604482015260640160405180910390fd5b600255565b80516001600160a01b038116811461014f57600080fd5b919050565b60008060006060848603121561016957600080fd5b8351925061017960208501610138565b915061018760408501610138565b90509250925092565b6104408061019f6000396000f3fe608060405234801561001057600080fd5b50600436106100625760003560e01c80633c8da588146100675780633e57d14d14610082578063715018a6146100975780638da5cb5b1461009f5780638e15f473146100ba578063f2fde38b146100c2575b600080fd5b61006f6100d5565b6040519081526020015b60405180910390f35b6100956100903660046102d0565b6100ff565b005b610095610137565b6000546040516001600160a01b039091168152602001610079565b61006f61016d565b6100956100d03660046102e9565b6101e5565b60006100df61016d565b6002546100f0906305f5e100610319565b6100fa9190610344565b905090565b6000546001600160a01b031633146101325760405162461bcd60e51b815260040161012990610366565b60405180910390fd5b600255565b6000546001600160a01b031633146101615760405162461bcd60e51b815260040161012990610366565b61016b6000610280565b565b6004805460408051633fabe5a360e21b8152905160009384936001600160a01b03169263feaf968c928183019260a0928290030181865afa1580156101b6573d6000803e3d6000fd5b505050506040513d601f19601f820116820180604052508101906101da91906103ba565b509195945050505050565b6000546001600160a01b0316331461020f5760405162461bcd60e51b815260040161012990610366565b6001600160a01b0381166102745760405162461bcd60e51b815260206004820152602660248201527f4f776e61626c653a206e6577206f776e657220697320746865207a65726f206160448201526564647265737360d01b6064820152608401610129565b61027d81610280565b50565b600080546001600160a01b038381166001600160a01b0319831681178455604051919092169283917f8be0079c531659141344cd1fd0a4f28419497f9722a3daafe3b4186f6b6457e09190a35050565b6000602082840312156102e257600080fd5b5035919050565b6000602082840312156102fb57600080fd5b81356001600160a01b038116811461031257600080fd5b9392505050565b808202811582820484141761033e57634e487b7160e01b600052601160045260246000fd5b92915050565b60008261036157634e487b7160e01b600052601260045260246000fd5b500490565b6020808252818101527f4f776e61626c653a2063616c6c6572206973206e6f7420746865206f776e6572604082015260600190565b805169ffffffffffffffffffff811681146103b557600080fd5b919050565b600080600080600060a086880312156103d257600080fd5b6103db8661039b565b94506020860151935060408601519250606086015191506103fe6080870161039b565b9050929550929590935056fea26469706673582212208dd256417d5417e32b7d67bb82ac081f5b4cd506bda86f02f8561cce54e6b9be64736f6c63430008110033","bytecodeSha1":"8881fcac634945cc72773d9218713e6233830d7b","compiler":{"evm_version":"istanbul","optimizer":{"enabled":true,"runs":200},"version":"0.8.17+commit.8df45f5f"},"contractName":"BuyToken","language":"Solidity","natspec":{"kind":"dev","methods":{"owner()":{"details":"Returns the address of the current owner."},"renounceOwnership()":{"details":"Leaves the contract without owner. It will not be possible to call `onlyOwner` functions anymore. Can only be called by the current owner. NOTE: Renouncing ownership will leave the contract without an owner, thereby removing any functionality that is only available to the owner."},"transferOwnership(address)":{"details":"Transfers ownership of the contract to a new account (`newOwner`). Can only be called by the current owner."}},"version":1},"opcodes":"PUSH1 0x80 PUSH1 0x40 MSTORE CALLVALUE DUP1 ISZERO PUSH2 0x10 JUMPI PUSH1 0x0 DUP1 REVERT JUMPDEST POP PUSH1 0x4 CALLDATASIZE LT PUSH2 0x62 JUMPI PUSH1 0x0 CALLDATALOAD PUSH1 0xE0 SHR DUP1 PUSH4 0x3C8DA588 EQ PUSH2 0x67 JUMPI DUP1 PUSH4 0x3E57D14D EQ PUSH2 0x82 JUMPI DUP1 PUSH4 0x715018A6 EQ PUSH2 0x97 JUMPI DUP1 PUSH4 0x8DA5CB5B EQ PUSH2 0x9F JUMPI DUP1 PUSH4 0x8E15F473 EQ PUSH2 0xBA JUMPI DUP1 PUSH4 0xF2FDE38B EQ PUSH2 0xC2 JUMPI JUMPDEST PUSH1 0x0 DUP1 REVERT JUMPDEST PUSH2 0x6F PUSH2 0xD5 JUMP JUMPDEST PUSH1 0x40 MLOAD SWAP1 DUP2 MSTORE PUSH1 0x20 ADD JUMPDEST PUSH1 0x40 MLOAD DUP1 SWAP2 SUB SWAP1 RETURN JUMPDEST PUSH2 0x95 PUSH2 0x90 CALLDATASIZE PUSH1 0x4 PUSH2 0x2D0 JUMP JUMPDEST PUSH2 0xFF JUMP JUMPDEST STOP JUMPDEST PUSH2 0x95 PUSH2 0x137 JUMP JUMPDEST PUSH1 0x0 SLOAD PUSH1 0x40 MLOAD PUSH1 0x1 PUSH1 0x1 PUSH1 0xA0 SHL SUB SWAP1 SWAP2 AND DUP2 MSTORE PUSH1 0x20 ADD PUSH2 0x79 JUMP JUMPDEST PUSH2 0x6F PUSH2 0x16D JUMP JUMPDEST PUSH2 0x95 PUSH2 0xD0 CALLDATASIZE PUSH1 0x4 PUSH2 0x2E9 JUMP JUMPDEST PUSH2 0x1E5 JUMP JUMPDEST PUSH1 0x0 PUSH2 0xDF PUSH2 0x16D JUMP JUMPDEST PUSH1 0x2 SLOAD PUSH2 0xF0 SWAP1 PUSH4 0x5F5E100 PUSH2 0x319 JUMP JUMPDEST PUSH2 0xFA SWAP2 SWAP1 PUSH2 0x344 JUMP JUMPDEST SWAP1 POP SWAP1 JUMP JUMPDEST PUSH1 0x0 SLOAD PUSH1 0x1 PUSH1 0x1 PUSH1 0xA0 SHL SUB AND CALLER EQ PUSH2 0x132 JUMPI PUSH1 0x40 MLOAD PUSH3 0x461BCD PUSH1 0xE5 SHL DUP2 MSTORE PUSH1 0x4 ADD PUSH2 0x129 SWAP1 PUSH2 0x366 JUMP JUMPDEST PUSH1 0x40 MLOAD DUP1 SWAP2 SUB SWAP1 REVERT JUMPDEST PUSH1 0x2 SSTORE JUMP JUMPDEST PUSH1 0x0 SLOAD PUSH1 0x1 PUSH1 0x1 PUSH1 0xA0 SHL SUB AND CALLER EQ PUSH2 0x161 JUMPI PUSH1 0x40 MLOAD PUSH3 0x461BCD PUSH1 0xE5 SHL DUP2 MSTORE PUSH1 0x4 ADD PUSH2 0x129 SWAP1 PUSH2 0x366 JUMP JUMPDEST PUSH2 0x16B PUSH1 0x0 PUSH2 0x280 JUMP JUMPDEST JUMP JUMPDEST PUSH1 0x4 DUP1 SLOAD PUSH1 0x40 DUP1 MLOAD PUSH4 0x3FABE5A3 PUSH1 0xE2 SHL DUP2 MSTORE SWAP1 MLOAD PUSH1 0x0 SWAP4 DUP5 SWAP4 PUSH1 0x1 PUSH1 0x1 PUSH1 0xA0 SHL SUB AND SWAP3 PUSH4 0xFEAF968C SWAP3 DUP2 DUP4 ADD SWAP3 PUSH1 0xA0 SWAP3 DUP3 SWAP1 SUB ADD DUP2 DUP7 GAS STATICCALL ISZERO DUP1 ISZERO PUSH2 0x1B6 JUMPI RETURNDATASIZE PUSH1 0x0 DUP1 RETURNDATACOPY RETURNDATASIZE PUSH1 0x0 REVERT JUMPDEST POP POP POP POP PUSH1 0x40 MLOAD RETURNDATASIZE PUSH1 0x1F NOT PUSH1 0x1F DUP3 ADD AND DUP3 ADD DUP1 PUSH1 0x40 MSTORE POP DUP2 ADD SWAP1 PUSH2 0x1DA SWAP2 SWAP1 PUSH2 0x3BA JUMP JUMPDEST POP SWAP2 SWAP6 SWAP5 POP POP POP POP POP JUMP JUMPDEST PUSH1 0x0 SLOAD PUSH1 0x1 PUSH1 0x1 PUSH1 0xA0 SHL SUB AND CALLER EQ PUSH2 0x20F JUMPI PUSH1 0x40 MLOAD PUSH3 0x461BCD PUSH1 0xE5 SHL DUP2 MSTORE PUSH1 0x4 ADD PUSH2 0x129 SWAP1 PUSH2 0x366 JUMP JUMPDEST PUSH1 0x1 PUSH1 0x1 PUSH1 0xA0 SHL SUB DUP2 AND PUSH2 0x274 JUMPI PUSH1 0x40 MLOAD PUSH3 0x461BCD PUSH1 0xE5 SHL DUP2 MSTORE PUSH1 0x20 PUSH1 0x4 DUP3 ADD MSTORE PUSH1 0x26 PUSH1 0x24 DUP3 ADD MSTORE PUSH32 0x4F776E61626C653A206E6577206F776E657220697320746865207A65726F2061 PUSH1 0x44 DUP3 ADD MSTORE PUSH6 0x646472657373 PUSH1 0xD0 SHL PUSH1 0x64 DUP3 ADD MSTORE PUSH1 0x84 ADD PUSH2 0x129 JUMP JUMPDEST PUSH2 0x27D DUP2 PUSH2 0x280 JUMP JUMPDEST POP JUMP JUMPDEST PUSH1 0x0 DUP1 SLOAD PUSH1 0x1 PUSH1 0x1 PUSH1 0xA0 SHL SUB DUP4 DUP2 AND PUSH1 0x1 PUSH1 0x1 PUSH1 0xA0 SHL SUB NOT DUP4 AND DUP2 OR DUP5 SSTORE PUSH1 0x40 MLOAD SWAP2 SWAP1 SWAP3 AND SWAP3 DUP4 SWAP2 PUSH32 0x8BE0079C531659141344CD1FD0A4F28419497F9722A3DAAFE3B4186F6B6457E0 SWAP2 SWAP1 LOG3 POP POP JUMP JUMPDEST PUSH1 0x0 PUSH1 0x20 DUP3 DUP5 SUB SLT ISZERO PUSH2 0x2E2 JUMPI PUSH1 0x0 DUP1 REVERT JUMPDEST POP CALLDATALOAD SWAP2 SWAP1 POP JUMP JUMPDEST PUSH1 0x0 PUSH1 0x20 DUP3 DUP5 SUB SLT ISZERO PUSH2 0x2FB JUMPI PUSH1 0x0 DUP1 REVERT JUMPDEST DUP2 CALLDATALOAD PUSH1 0x1 PUSH1 0x1 PUSH1 0xA0 SHL SUB DUP2 AND DUP2 EQ PUSH2 0x312 JUMPI PUSH1 0x0 DUP1 REVERT JUMPDEST SWAP4 SWAP3 POP POP POP JUMP JUMPDEST DUP1 DUP3 MUL DUP2 ISZERO DUP3 DUP3 DIV DUP5 EQ OR PUSH2 0x33E JUMPI PUSH4 0x4E487B71 PUSH1 0xE0 SHL PUSH1 0x0 MSTORE PUSH1 0x11 PUSH1 0x4 MSTORE PUSH1 0x24 PUSH1 0x0 REVERT JUMPDEST SWAP3 SWAP2 POP POP JUMP JUMPDEST PUSH1 0x0 DUP3 PUSH2 0x361 JUMPI PUSH4 0x4E487B71 PUSH1 0xE0 SHL PUSH1 0x0 MSTORE PUSH1 0x12 PUSH1 0x4 MSTORE PUSH1 0x24 PUSH1 0x0 REVERT JUMPDEST POP DIV SWAP1 JUMP JUMPDEST PUSH1 0x20 DUP1 DUP3 MSTORE DUP2 DUP2 ADD MSTORE PUSH32 0x4F776E61626C653A2063616C6C6572206973206E6F7420746865206F776E6572 PUSH1 0x40 DUP3 ADD MSTORE PUSH1 0x60 ADD SWAP1 JUMP JUMPDEST DUP1 MLOAD PUSH10 0xFFFFFFFFFFFFFFFFFFFF DUP2 AND DUP2 EQ PUSH2 0x3B5 JUMPI PUSH1 0x0 DUP1 REVERT JUMPDEST SWAP2 SWAP1 POP JUMP JUMPDEST PUSH1 0x0 DUP1 PUSH1 0x0 DUP1 PUSH1 0x0 PUSH1 0xA0 DUP7 DUP9 SUB SLT ISZERO PUSH2 0x3D2 JUMPI PUSH1 0x0 DUP1 REVERT JUMPDEST PUSH2 0x3DB DUP7 PUSH2 0x39B JUMP JUMPDEST SWAP5 POP PUSH1 0x20 DUP7 ADD MLOAD SWAP4 POP PUSH1 0x40 DUP7 ADD MLOAD SWAP3 POP PUSH1 0x60 DUP7 ADD MLOAD SWAP2 POP PUSH2 0x3FE PUSH1 0x80 DUP8 ADD PUSH2 0x39B JUMP JUMPDEST SWAP1 POP SWAP3 SWAP6 POP SWAP3 SWAP6 SWAP1 SWAP4 POP JUMP INVALID LOG2 PUSH5 0x6970667358 0x22 SLT KECCAK256 DUP14 0xD2 JUMP COINBASE PUSH30 0x5417E32B7D67BB82AC081F5B4CD506BDA86F02F8561CCE54E6B9BE64736F PUSH13 0x63430008110033000000000000 ","sha1":"f6970f1ae499421301bad91639d259eec289d8f0","source":"// pragma solidity >=0.6.0;\n\n// import \"@chainlink/contracts/src/v0.6/interfaces/AggregatorV3Interface.sol\";\n// import \"@openzeppelin/contracts/access/Ownable.sol\";\n\n// // interface Prot{\n// //     function decimals() external view returns (uint8);\n// //     function transfer(address to, uint256 amount) external returns (bool);\n// //     function balanceOf(address account) external view returns (uint256);\n// // }\n\n// contract BuyToken is Ownable{\n//     // Prot prot;\n//     uint256 priceInUsd; \n//     // address createTokenAddress;\n//     AggregatorV3Interface internal priceFeed;\n\n//     // The price of our token is defined by the variable _priceInUsd.\n//     // Since _priceInUsd is an uint256, this variable can't have 0.001 \n//     // as a value. That is, in this scenario our new token canÂ´t have \n//     // a price less than a usd dollar, unless... we SCALE it.\n\n//     // If we scale it by the factor 10^18, we would have \n//     // that 0.001 * 10^18 = 10^15 = 1000000000000000 (15 zeros).\n    \n//     // Thus if we set _priceInUsd = 1000000000000000 (15 zeros), it would mean that \n//     // we are setting a price of 0.001 usd for our new token.\n\n//     // Why 18, because 18 is the number of decimals of our new token.\n    \n//     // constructor (address _createTokenAddress, uint256 _priceInUsd) {\n//     //     createTokenAddress = _createTokenAddress;\n//     //     prot = Prot(_createTokenAddress);\n//     //     priceFeed = AggregatorV3Interface(0xD4a33860578De61DBAbDc8BFdb98FD742fA7028e);\n//     //     updatePriceInUsd(_priceInUsd);\n//     // }\n\n//     constructor () {\n//         // createTokenAddress = _createTokenAddress;\n//         // prot = Prot(_createTokenAddress);\n//         priceFeed = AggregatorV3Interface(0xD4a33860578De61DBAbDc8BFdb98FD742fA7028e);\n//         updatePriceInUsd(10000000000000000);\n        \n//     }\n\n//     /*\n//     function instanceCreateToken(address _createTokenAddress) public {\n//         createTokenAddress = _createTokenAddress;\n//         prot = Prot(_createTokenAddress);\n//     }\n//     */\n\n//     // This function will be used for setting the initial price of\n//     // our new token and for updating futures prices of the token.\n//     function updatePriceInUsd(uint256 _priceInUsd) public onlyOwner{\n//         require(_priceInUsd*10**8 >= getLatestPrice(), \"Hint, put a price > 10000 (=0.00000000000001 usd)\");\n//         priceInUsd = _priceInUsd;\n//     }\n\n//     // Let webAppNumTokens = 0.1, the number of tokens the user would like\n//     // to buy.\n\n//     // Then the variable webAppNumTokens (=0.1) in the frontend of the  \n//     // app must be multiply by the factor 10^18.\n\n//     // If we scale it by the factor 10^18, we would have \n//     // that 0.1 * 10^18 = 10^17 = 100000000000000000 (17 zeros).\n\n//     // Thus if we set numTokens = 100000000000000000 (17 zeros) in \n//     // our buyToken() function, it would mean that \n//     // the user is buying a quantity of 0.1 of our new token.\n    \n//     /*\n//     function buyToken(uint256 numTokens) public payable {\n//         require(msg.value >= priceInWei()*numTokens / (1*10**18), \"Not enought money!\");\n//         // require(prot.balanceOf(addr) >= numTokens, \"Asking more TOKENS than available\");\n//         prot.transfer(msg.sender, numTokens);\n//     }\n\n//     function getAvailableTokens() public view returns(uint256){\n//         return prot.balanceOf(createTokenAddress);\n//     }\n//     */\n\n//     function getLatestPrice() public view returns(uint256){\n//         (,int latestPrice,,,) = priceFeed.latestRoundData();\n//         return uint256(latestPrice);\n//     }\n\n//     /*\n//     1 ETH --> 1*10^18 WEIs --> (latestPrice/18^8)  (1) latestPrice is already multiplied by 10^8\n//                  x    WEIs --> (priceInUsd/10^18)  (2) priceInUsd is already multiplied by 10^18\n\n//     despejando x = priceInUsd * 10^8 / latestPrice\n//     */\n//     function priceInWei() public view returns(uint256){\n//         return (((priceInUsd)*(1*10**8)) / getLatestPrice());\n//     }\n\n// }\n\n// // 0xC15099c7c260aF4a77f1541Db3Dd9BfBCAbaF81D\n\n// // Examples of input values for the function: updatePriceInUsd() :\n// // 0.001 usd * 10^18 = 1000000000000000 (15 zeros)\n// // 0.00000001 usd * 10^18 = 10000000000 (10 zeros)\n// // 0.00000000000001 usd * 10^18 = 10000 (4 zeros)\n\n\n// SPDX-License-Identifier: MIT\n\npragma solidity >=0.6.0;\n\nimport \"@chainlink/contracts/src/v0.6/interfaces/AggregatorV3Interface.sol\";\nimport \"@openzeppelin/contracts/access/Ownable.sol\";\n\ninterface Prot{\n    function decimals() external view returns (uint8);\n    function transfer(address to, uint256 amount) external returns (bool);\n    function balanceOf(address account) external view returns (uint256);\n}\n\ncontract BuyToken is Ownable{\n    Prot prot;\n    uint256 priceInUsd; \n    address createTokenAddress;\n    AggregatorV3Interface internal priceFeed;\n\n    // The price of our token is defined by the variable _priceInUsd.\n    // Since _priceInUsd is an uint256, this variable can't have 0.001 \n    // as a value. That is, in this scenario our new token canÂ´t have \n    // a price less than a usd dollar, unless... we SCALE it.\n\n    // If we scale it by the factor 10^18, we would have \n    // that 0.001 * 10^18 = 10^15 = 1000000000000000 (15 zeros).\n    \n    // Thus if we set _priceInUsd = 1000000000000000 (15 zeros), it would mean that \n    // we are setting a price of 0.001 usd for our new token.\n\n    // Why 18, because 18 is the number of decimals of our new token.\n    \n    constructor(uint256 _priceInUsd, address _createTokenAddress, address _priceFeed) {\n        createTokenAddress = _createTokenAddress;\n        prot = Prot(_createTokenAddress);\n        priceFeed = AggregatorV3Interface(_priceFeed);\n        updatePriceInUsd(_priceInUsd);\n    }\n\n    // This function will be used for setting the initial price of\n    // our new token and for updating futures prices of the token.\n    \n    function updatePriceInUsd(uint256 _priceInUsd) public onlyOwner{\n        // require(_priceInUsd*10**8 >= getLatestPrice(), \"Hint, put a price > 10000 (=0.00000000000001 usd)\");\n        priceInUsd = _priceInUsd;\n    }\n\n    // Let webAppNumTokens = 0.1, the number of tokens the user would like\n    // to buy.\n\n    // Then the variable webAppNumTokens (=0.1) in the frontend of the  \n    // app must be multiply by the factor 10^18.\n\n    // If we scale it by the factor 10^18, we would have \n    // that 0.1 * 10^18 = 10^17 = 100000000000000000 (17 zeros).\n\n    // Thus if we set numTokens = 100000000000000000 (17 zeros) in \n    // our buyToken() function, it would mean that \n    // the user is buying a quantity of 0.1 of our new token.\n    \n    // function buyToken(uint256 numTokens) public payable {\n    //     require(msg.value >= priceInWei()*numTokens, \"Not enought money!\");\n    //     require(prot.balanceOf(addr) >= numTokens, \"Asking more TOKENS than available\");\n    //     prot.transfer(msg.sender, numTokens);\n    // }\n\n    // function getAvailableTokens() public view returns(uint256){\n    //     return prot.balanceOf(addr);\n    // }\n    \n    function getLatestPrice() public view returns(uint256){\n        (,int latestPrice,,,) = priceFeed.latestRoundData();\n        return uint256(latestPrice);\n    }\n\n    /*\n    1 ETH --> 1*10^18 WEIs --> (latestPrice/18^8)  (1) latestPrice is already multiplied by 10^8\n                 x    WEIs --> (priceInUsd/10^18)  (2) priceInUsd is already multiplied by 10^18\n\n    despejando x = priceInUsd * 10^8 / latestPrice\n    */\n    \n    function priceInWei() public view returns(uint256){\n        return (((priceInUsd)*(1*10**8)) / getLatestPrice());\n    }\n\n}\n\n// 0xC15099c7c260aF4a77f1541Db3Dd9BfBCAbaF81D\n\n// Examples of input values for the function: updatePriceInUsd() :\n// 0.001 usd * 10^18 = 1000000000000000 (15 zeros)\n// 0.00000001 usd * 10^18 = 10000000000 (10 zeros)\n// 0.00000000000001 usd * 10^18 = 10000 (4 zeros)\n","sourcePath":"contracts/BuyToken.sol","type":"contract","deployment":{"address":"0x3454af1F11848ED5b15d1a79c0b4c0b7Ef8075ca","chainid":"5","blockHeight":7849964}}