{"abi":[{"inputs":[{"internalType":"uint256","name":"_priceInUsd","type":"uint256"},{"internalType":"address","name":"_createTokenAddress","type":"address"},{"internalType":"address","name":"_priceFeed","type":"address"}],"stateMutability":"nonpayable","type":"constructor","name":"constructor"},{"anonymous":false,"inputs":[{"indexed":true,"internalType":"address","name":"previousOwner","type":"address"},{"indexed":true,"internalType":"address","name":"newOwner","type":"address"}],"name":"OwnershipTransferred","type":"event"},{"inputs":[{"internalType":"address","name":"_to","type":"address"},{"internalType":"uint256","name":"numTokens","type":"uint256"}],"name":"buyToken","outputs":[],"stateMutability":"payable","type":"function"},{"inputs":[],"name":"getAvailableTokens","outputs":[{"internalType":"uint256","name":"","type":"uint256"}],"stateMutability":"view","type":"function"},{"inputs":[],"name":"getLatestPrice","outputs":[{"internalType":"uint256","name":"","type":"uint256"}],"stateMutability":"view","type":"function"},{"inputs":[],"name":"owner","outputs":[{"internalType":"address","name":"","type":"address"}],"stateMutability":"view","type":"function"},{"inputs":[],"name":"priceInWei","outputs":[{"internalType":"uint256","name":"","type":"uint256"}],"stateMutability":"view","type":"function"},{"inputs":[],"name":"renounceOwnership","outputs":[],"stateMutability":"nonpayable","type":"function"},{"inputs":[{"internalType":"address","name":"newOwner","type":"address"}],"name":"transferOwnership","outputs":[],"stateMutability":"nonpayable","type":"function"},{"inputs":[{"internalType":"uint256","name":"_priceInUsd","type":"uint256"}],"name":"updatePriceInUsd","outputs":[],"stateMutability":"nonpayable","type":"function"}],"bytecode":"608060405234801561001057600080fd5b5060405162000b4538038062000b458339810160408190526100319161024d565b61003a33610087565b600380546001600160a01b03199081166001600160a01b0385811691821790935560018054831690911790556004805490911691831691909117905561007f836100d7565b50505061031b565b600080546001600160a01b038381166001600160a01b0319831681178455604051919092169283917f8be0079c531659141344cd1fd0a4f28419497f9722a3daafe3b4186f6b6457e09190a35050565b6000546001600160a01b031633146101365760405162461bcd60e51b815260206004820181905260248201527f4f776e61626c653a2063616c6c6572206973206e6f7420746865206f776e657260448201526064015b60405180910390fd5b61013e6101b9565b61014c826305f5e100610289565b10156101b45760405162461bcd60e51b815260206004820152603160248201527f48696e742c207075742061207072696365203e20313030303020283d302e3030604482015270303030303030303030303031207573642960781b606482015260840161012d565b600255565b6004805460408051633fabe5a360e21b8152905160009384936001600160a01b03169263feaf968c928183019260a0928290030181865afa158015610202573d6000803e3d6000fd5b505050506040513d601f19601f8201168201806040525081019061022691906102cb565b509195945050505050565b80516001600160a01b038116811461024857600080fd5b919050565b60008060006060848603121561026257600080fd5b8351925061027260208501610231565b915061028060408501610231565b90509250925092565b80820281158282048414176102ae57634e487b7160e01b600052601160045260246000fd5b92915050565b80516001600160501b038116811461024857600080fd5b600080600080600060a086880312156102e357600080fd5b6102ec866102b4565b945060208601519350604086015192506060860151915061030f608087016102b4565b90509295509295909350565b61081a806200032b6000396000f3fe60806040526004361061007b5760003560e01c80638da5cb5b1161004e5780638da5cb5b146100f25780638e15f4731461011a578063e35568cb1461012f578063f2fde38b1461014457600080fd5b80633c8da588146100805780633e57d14d146100a857806368f8fc10146100ca578063715018a6146100dd575b600080fd5b34801561008c57600080fd5b50610095610164565b6040519081526020015b60405180910390f35b3480156100b457600080fd5b506100c86100c336600461063c565b61018e565b005b6100c86100d8366004610671565b610244565b3480156100e957600080fd5b506100c8610415565b3480156100fe57600080fd5b506000546040516001600160a01b03909116815260200161009f565b34801561012657600080fd5b5061009561044b565b34801561013b57600080fd5b506100956104c3565b34801561015057600080fd5b506100c861015f36600461069b565b610551565b600061016e61044b565b60025461017f906305f5e1006106bd565b61018991906106e8565b905090565b6000546001600160a01b031633146101c15760405162461bcd60e51b81526004016101b89061070a565b60405180910390fd5b6101c961044b565b6101d7826305f5e1006106bd565b101561023f5760405162461bcd60e51b815260206004820152603160248201527f48696e742c207075742061207072696365203e20313030303020283d302e3030604482015270303030303030303030303031207573642960781b60648201526084016101b8565b600255565b670de0b6b3a764000081610256610164565b61026091906106bd565b61026a91906106e8565b3410156102ae5760405162461bcd60e51b81526020600482015260126024820152714e6f7420656e6f75676874206d6f6e65792160701b60448201526064016101b8565b60015481906001600160a01b03166370a082316102d36000546001600160a01b031690565b6040516001600160e01b031960e084901b1681526001600160a01b039091166004820152602401602060405180830381865afa158015610317573d6000803e3d6000fd5b505050506040513d601f19601f8201168201806040525081019061033b919061073f565b10156103935760405162461bcd60e51b815260206004820152602160248201527f41736b696e67206d6f726520544f4b454e53207468616e20617661696c61626c6044820152606560f81b60648201526084016101b8565b6001546040516323b872dd60e01b81523360048201526001600160a01b03848116602483015260448201849052909116906323b872dd906064016020604051808303816000875af11580156103ec573d6000803e3d6000fd5b505050506040513d601f19601f820116820180604052508101906104109190610758565b505050565b6000546001600160a01b0316331461043f5760405162461bcd60e51b81526004016101b89061070a565b61044960006105ec565b565b6004805460408051633fabe5a360e21b8152905160009384936001600160a01b03169263feaf968c928183019260a0928290030181865afa158015610494573d6000803e3d6000fd5b505050506040513d601f19601f820116820180604052508101906104b89190610794565b509195945050505050565b6001546000906001600160a01b03166370a082316104e96000546001600160a01b031690565b6040516001600160e01b031960e084901b1681526001600160a01b039091166004820152602401602060405180830381865afa15801561052d573d6000803e3d6000fd5b505050506040513d601f19601f82011682018060405250810190610189919061073f565b6000546001600160a01b0316331461057b5760405162461bcd60e51b81526004016101b89061070a565b6001600160a01b0381166105e05760405162461bcd60e51b815260206004820152602660248201527f4f776e61626c653a206e6577206f776e657220697320746865207a65726f206160448201526564647265737360d01b60648201526084016101b8565b6105e9816105ec565b50565b600080546001600160a01b038381166001600160a01b0319831681178455604051919092169283917f8be0079c531659141344cd1fd0a4f28419497f9722a3daafe3b4186f6b6457e09190a35050565b60006020828403121561064e57600080fd5b5035919050565b80356001600160a01b038116811461066c57600080fd5b919050565b6000806040838503121561068457600080fd5b61068d83610655565b946020939093013593505050565b6000602082840312156106ad57600080fd5b6106b682610655565b9392505050565b80820281158282048414176106e257634e487b7160e01b600052601160045260246000fd5b92915050565b60008261070557634e487b7160e01b600052601260045260246000fd5b500490565b6020808252818101527f4f776e61626c653a2063616c6c6572206973206e6f7420746865206f776e6572604082015260600190565b60006020828403121561075157600080fd5b5051919050565b60006020828403121561076a57600080fd5b815180151581146106b657600080fd5b805169ffffffffffffffffffff8116811461066c57600080fd5b600080600080600060a086880312156107ac57600080fd5b6107b58661077a565b94506020860151935060408601519250606086015191506107d86080870161077a565b9050929550929590935056fea2646970667358221220f79fea6b814af7aa1f15a94bd1cf127214cb8eff31969305db75e04dd5aefc2364736f6c63430008110033","bytecodeSha1":"2b27d04c81aedc4675cbc35ecd99e199f047f18c","compiler":{"evm_version":"istanbul","optimizer":{"enabled":true,"runs":200},"version":"0.8.17+commit.8df45f5f"},"contractName":"BuyToken","language":"Solidity","natspec":{"kind":"dev","methods":{"owner()":{"details":"Returns the address of the current owner."},"renounceOwnership()":{"details":"Leaves the contract without owner. It will not be possible to call `onlyOwner` functions anymore. Can only be called by the current owner. NOTE: Renouncing ownership will leave the contract without an owner, thereby removing any functionality that is only available to the owner."},"transferOwnership(address)":{"details":"Transfers ownership of the contract to a new account (`newOwner`). Can only be called by the current owner."}},"version":1},"opcodes":"PUSH1 0x80 PUSH1 0x40 MSTORE PUSH1 0x4 CALLDATASIZE LT PUSH2 0x7B JUMPI PUSH1 0x0 CALLDATALOAD PUSH1 0xE0 SHR DUP1 PUSH4 0x8DA5CB5B GT PUSH2 0x4E JUMPI DUP1 PUSH4 0x8DA5CB5B EQ PUSH2 0xF2 JUMPI DUP1 PUSH4 0x8E15F473 EQ PUSH2 0x11A JUMPI DUP1 PUSH4 0xE35568CB EQ PUSH2 0x12F JUMPI DUP1 PUSH4 0xF2FDE38B EQ PUSH2 0x144 JUMPI PUSH1 0x0 DUP1 REVERT JUMPDEST DUP1 PUSH4 0x3C8DA588 EQ PUSH2 0x80 JUMPI DUP1 PUSH4 0x3E57D14D EQ PUSH2 0xA8 JUMPI DUP1 PUSH4 0x68F8FC10 EQ PUSH2 0xCA JUMPI DUP1 PUSH4 0x715018A6 EQ PUSH2 0xDD JUMPI JUMPDEST PUSH1 0x0 DUP1 REVERT JUMPDEST CALLVALUE DUP1 ISZERO PUSH2 0x8C JUMPI PUSH1 0x0 DUP1 REVERT JUMPDEST POP PUSH2 0x95 PUSH2 0x164 JUMP JUMPDEST PUSH1 0x40 MLOAD SWAP1 DUP2 MSTORE PUSH1 0x20 ADD JUMPDEST PUSH1 0x40 MLOAD DUP1 SWAP2 SUB SWAP1 RETURN JUMPDEST CALLVALUE DUP1 ISZERO PUSH2 0xB4 JUMPI PUSH1 0x0 DUP1 REVERT JUMPDEST POP PUSH2 0xC8 PUSH2 0xC3 CALLDATASIZE PUSH1 0x4 PUSH2 0x63C JUMP JUMPDEST PUSH2 0x18E JUMP JUMPDEST STOP JUMPDEST PUSH2 0xC8 PUSH2 0xD8 CALLDATASIZE PUSH1 0x4 PUSH2 0x671 JUMP JUMPDEST PUSH2 0x244 JUMP JUMPDEST CALLVALUE DUP1 ISZERO PUSH2 0xE9 JUMPI PUSH1 0x0 DUP1 REVERT JUMPDEST POP PUSH2 0xC8 PUSH2 0x415 JUMP JUMPDEST CALLVALUE DUP1 ISZERO PUSH2 0xFE JUMPI PUSH1 0x0 DUP1 REVERT JUMPDEST POP PUSH1 0x0 SLOAD PUSH1 0x40 MLOAD PUSH1 0x1 PUSH1 0x1 PUSH1 0xA0 SHL SUB SWAP1 SWAP2 AND DUP2 MSTORE PUSH1 0x20 ADD PUSH2 0x9F JUMP JUMPDEST CALLVALUE DUP1 ISZERO PUSH2 0x126 JUMPI PUSH1 0x0 DUP1 REVERT JUMPDEST POP PUSH2 0x95 PUSH2 0x44B JUMP JUMPDEST CALLVALUE DUP1 ISZERO PUSH2 0x13B JUMPI PUSH1 0x0 DUP1 REVERT JUMPDEST POP PUSH2 0x95 PUSH2 0x4C3 JUMP JUMPDEST CALLVALUE DUP1 ISZERO PUSH2 0x150 JUMPI PUSH1 0x0 DUP1 REVERT JUMPDEST POP PUSH2 0xC8 PUSH2 0x15F CALLDATASIZE PUSH1 0x4 PUSH2 0x69B JUMP JUMPDEST PUSH2 0x551 JUMP JUMPDEST PUSH1 0x0 PUSH2 0x16E PUSH2 0x44B JUMP JUMPDEST PUSH1 0x2 SLOAD PUSH2 0x17F SWAP1 PUSH4 0x5F5E100 PUSH2 0x6BD JUMP JUMPDEST PUSH2 0x189 SWAP2 SWAP1 PUSH2 0x6E8 JUMP JUMPDEST SWAP1 POP SWAP1 JUMP JUMPDEST PUSH1 0x0 SLOAD PUSH1 0x1 PUSH1 0x1 PUSH1 0xA0 SHL SUB AND CALLER EQ PUSH2 0x1C1 JUMPI PUSH1 0x40 MLOAD PUSH3 0x461BCD PUSH1 0xE5 SHL DUP2 MSTORE PUSH1 0x4 ADD PUSH2 0x1B8 SWAP1 PUSH2 0x70A JUMP JUMPDEST PUSH1 0x40 MLOAD DUP1 SWAP2 SUB SWAP1 REVERT JUMPDEST PUSH2 0x1C9 PUSH2 0x44B JUMP JUMPDEST PUSH2 0x1D7 DUP3 PUSH4 0x5F5E100 PUSH2 0x6BD JUMP JUMPDEST LT ISZERO PUSH2 0x23F JUMPI PUSH1 0x40 MLOAD PUSH3 0x461BCD PUSH1 0xE5 SHL DUP2 MSTORE PUSH1 0x20 PUSH1 0x4 DUP3 ADD MSTORE PUSH1 0x31 PUSH1 0x24 DUP3 ADD MSTORE PUSH32 0x48696E742C207075742061207072696365203E20313030303020283D302E3030 PUSH1 0x44 DUP3 ADD MSTORE PUSH17 0x3030303030303030303030312075736429 PUSH1 0x78 SHL PUSH1 0x64 DUP3 ADD MSTORE PUSH1 0x84 ADD PUSH2 0x1B8 JUMP JUMPDEST PUSH1 0x2 SSTORE JUMP JUMPDEST PUSH8 0xDE0B6B3A7640000 DUP2 PUSH2 0x256 PUSH2 0x164 JUMP JUMPDEST PUSH2 0x260 SWAP2 SWAP1 PUSH2 0x6BD JUMP JUMPDEST PUSH2 0x26A SWAP2 SWAP1 PUSH2 0x6E8 JUMP JUMPDEST CALLVALUE LT ISZERO PUSH2 0x2AE JUMPI PUSH1 0x40 MLOAD PUSH3 0x461BCD PUSH1 0xE5 SHL DUP2 MSTORE PUSH1 0x20 PUSH1 0x4 DUP3 ADD MSTORE PUSH1 0x12 PUSH1 0x24 DUP3 ADD MSTORE PUSH18 0x4E6F7420656E6F75676874206D6F6E657921 PUSH1 0x70 SHL PUSH1 0x44 DUP3 ADD MSTORE PUSH1 0x64 ADD PUSH2 0x1B8 JUMP JUMPDEST PUSH1 0x1 SLOAD DUP2 SWAP1 PUSH1 0x1 PUSH1 0x1 PUSH1 0xA0 SHL SUB AND PUSH4 0x70A08231 PUSH2 0x2D3 PUSH1 0x0 SLOAD PUSH1 0x1 PUSH1 0x1 PUSH1 0xA0 SHL SUB AND SWAP1 JUMP JUMPDEST PUSH1 0x40 MLOAD PUSH1 0x1 PUSH1 0x1 PUSH1 0xE0 SHL SUB NOT PUSH1 0xE0 DUP5 SWAP1 SHL AND DUP2 MSTORE PUSH1 0x1 PUSH1 0x1 PUSH1 0xA0 SHL SUB SWAP1 SWAP2 AND PUSH1 0x4 DUP3 ADD MSTORE PUSH1 0x24 ADD PUSH1 0x20 PUSH1 0x40 MLOAD DUP1 DUP4 SUB DUP2 DUP7 GAS STATICCALL ISZERO DUP1 ISZERO PUSH2 0x317 JUMPI RETURNDATASIZE PUSH1 0x0 DUP1 RETURNDATACOPY RETURNDATASIZE PUSH1 0x0 REVERT JUMPDEST POP POP POP POP PUSH1 0x40 MLOAD RETURNDATASIZE PUSH1 0x1F NOT PUSH1 0x1F DUP3 ADD AND DUP3 ADD DUP1 PUSH1 0x40 MSTORE POP DUP2 ADD SWAP1 PUSH2 0x33B SWAP2 SWAP1 PUSH2 0x73F JUMP JUMPDEST LT ISZERO PUSH2 0x393 JUMPI PUSH1 0x40 MLOAD PUSH3 0x461BCD PUSH1 0xE5 SHL DUP2 MSTORE PUSH1 0x20 PUSH1 0x4 DUP3 ADD MSTORE PUSH1 0x21 PUSH1 0x24 DUP3 ADD MSTORE PUSH32 0x41736B696E67206D6F726520544F4B454E53207468616E20617661696C61626C PUSH1 0x44 DUP3 ADD MSTORE PUSH1 0x65 PUSH1 0xF8 SHL PUSH1 0x64 DUP3 ADD MSTORE PUSH1 0x84 ADD PUSH2 0x1B8 JUMP JUMPDEST PUSH1 0x1 SLOAD PUSH1 0x40 MLOAD PUSH4 0x23B872DD PUSH1 0xE0 SHL DUP2 MSTORE CALLER PUSH1 0x4 DUP3 ADD MSTORE PUSH1 0x1 PUSH1 0x1 PUSH1 0xA0 SHL SUB DUP5 DUP2 AND PUSH1 0x24 DUP4 ADD MSTORE PUSH1 0x44 DUP3 ADD DUP5 SWAP1 MSTORE SWAP1 SWAP2 AND SWAP1 PUSH4 0x23B872DD SWAP1 PUSH1 0x64 ADD PUSH1 0x20 PUSH1 0x40 MLOAD DUP1 DUP4 SUB DUP2 PUSH1 0x0 DUP8 GAS CALL ISZERO DUP1 ISZERO PUSH2 0x3EC JUMPI RETURNDATASIZE PUSH1 0x0 DUP1 RETURNDATACOPY RETURNDATASIZE PUSH1 0x0 REVERT JUMPDEST POP POP POP POP PUSH1 0x40 MLOAD RETURNDATASIZE PUSH1 0x1F NOT PUSH1 0x1F DUP3 ADD AND DUP3 ADD DUP1 PUSH1 0x40 MSTORE POP DUP2 ADD SWAP1 PUSH2 0x410 SWAP2 SWAP1 PUSH2 0x758 JUMP JUMPDEST POP POP POP JUMP JUMPDEST PUSH1 0x0 SLOAD PUSH1 0x1 PUSH1 0x1 PUSH1 0xA0 SHL SUB AND CALLER EQ PUSH2 0x43F JUMPI PUSH1 0x40 MLOAD PUSH3 0x461BCD PUSH1 0xE5 SHL DUP2 MSTORE PUSH1 0x4 ADD PUSH2 0x1B8 SWAP1 PUSH2 0x70A JUMP JUMPDEST PUSH2 0x449 PUSH1 0x0 PUSH2 0x5EC JUMP JUMPDEST JUMP JUMPDEST PUSH1 0x4 DUP1 SLOAD PUSH1 0x40 DUP1 MLOAD PUSH4 0x3FABE5A3 PUSH1 0xE2 SHL DUP2 MSTORE SWAP1 MLOAD PUSH1 0x0 SWAP4 DUP5 SWAP4 PUSH1 0x1 PUSH1 0x1 PUSH1 0xA0 SHL SUB AND SWAP3 PUSH4 0xFEAF968C SWAP3 DUP2 DUP4 ADD SWAP3 PUSH1 0xA0 SWAP3 DUP3 SWAP1 SUB ADD DUP2 DUP7 GAS STATICCALL ISZERO DUP1 ISZERO PUSH2 0x494 JUMPI RETURNDATASIZE PUSH1 0x0 DUP1 RETURNDATACOPY RETURNDATASIZE PUSH1 0x0 REVERT JUMPDEST POP POP POP POP PUSH1 0x40 MLOAD RETURNDATASIZE PUSH1 0x1F NOT PUSH1 0x1F DUP3 ADD AND DUP3 ADD DUP1 PUSH1 0x40 MSTORE POP DUP2 ADD SWAP1 PUSH2 0x4B8 SWAP2 SWAP1 PUSH2 0x794 JUMP JUMPDEST POP SWAP2 SWAP6 SWAP5 POP POP POP POP POP JUMP JUMPDEST PUSH1 0x1 SLOAD PUSH1 0x0 SWAP1 PUSH1 0x1 PUSH1 0x1 PUSH1 0xA0 SHL SUB AND PUSH4 0x70A08231 PUSH2 0x4E9 PUSH1 0x0 SLOAD PUSH1 0x1 PUSH1 0x1 PUSH1 0xA0 SHL SUB AND SWAP1 JUMP JUMPDEST PUSH1 0x40 MLOAD PUSH1 0x1 PUSH1 0x1 PUSH1 0xE0 SHL SUB NOT PUSH1 0xE0 DUP5 SWAP1 SHL AND DUP2 MSTORE PUSH1 0x1 PUSH1 0x1 PUSH1 0xA0 SHL SUB SWAP1 SWAP2 AND PUSH1 0x4 DUP3 ADD MSTORE PUSH1 0x24 ADD PUSH1 0x20 PUSH1 0x40 MLOAD DUP1 DUP4 SUB DUP2 DUP7 GAS STATICCALL ISZERO DUP1 ISZERO PUSH2 0x52D JUMPI RETURNDATASIZE PUSH1 0x0 DUP1 RETURNDATACOPY RETURNDATASIZE PUSH1 0x0 REVERT JUMPDEST POP POP POP POP PUSH1 0x40 MLOAD RETURNDATASIZE PUSH1 0x1F NOT PUSH1 0x1F DUP3 ADD AND DUP3 ADD DUP1 PUSH1 0x40 MSTORE POP DUP2 ADD SWAP1 PUSH2 0x189 SWAP2 SWAP1 PUSH2 0x73F JUMP JUMPDEST PUSH1 0x0 SLOAD PUSH1 0x1 PUSH1 0x1 PUSH1 0xA0 SHL SUB AND CALLER EQ PUSH2 0x57B JUMPI PUSH1 0x40 MLOAD PUSH3 0x461BCD PUSH1 0xE5 SHL DUP2 MSTORE PUSH1 0x4 ADD PUSH2 0x1B8 SWAP1 PUSH2 0x70A JUMP JUMPDEST PUSH1 0x1 PUSH1 0x1 PUSH1 0xA0 SHL SUB DUP2 AND PUSH2 0x5E0 JUMPI PUSH1 0x40 MLOAD PUSH3 0x461BCD PUSH1 0xE5 SHL DUP2 MSTORE PUSH1 0x20 PUSH1 0x4 DUP3 ADD MSTORE PUSH1 0x26 PUSH1 0x24 DUP3 ADD MSTORE PUSH32 0x4F776E61626C653A206E6577206F776E657220697320746865207A65726F2061 PUSH1 0x44 DUP3 ADD MSTORE PUSH6 0x646472657373 PUSH1 0xD0 SHL PUSH1 0x64 DUP3 ADD MSTORE PUSH1 0x84 ADD PUSH2 0x1B8 JUMP JUMPDEST PUSH2 0x5E9 DUP2 PUSH2 0x5EC JUMP JUMPDEST POP JUMP JUMPDEST PUSH1 0x0 DUP1 SLOAD PUSH1 0x1 PUSH1 0x1 PUSH1 0xA0 SHL SUB DUP4 DUP2 AND PUSH1 0x1 PUSH1 0x1 PUSH1 0xA0 SHL SUB NOT DUP4 AND DUP2 OR DUP5 SSTORE PUSH1 0x40 MLOAD SWAP2 SWAP1 SWAP3 AND SWAP3 DUP4 SWAP2 PUSH32 0x8BE0079C531659141344CD1FD0A4F28419497F9722A3DAAFE3B4186F6B6457E0 SWAP2 SWAP1 LOG3 POP POP JUMP JUMPDEST PUSH1 0x0 PUSH1 0x20 DUP3 DUP5 SUB SLT ISZERO PUSH2 0x64E JUMPI PUSH1 0x0 DUP1 REVERT JUMPDEST POP CALLDATALOAD SWAP2 SWAP1 POP JUMP JUMPDEST DUP1 CALLDATALOAD PUSH1 0x1 PUSH1 0x1 PUSH1 0xA0 SHL SUB DUP2 AND DUP2 EQ PUSH2 0x66C JUMPI PUSH1 0x0 DUP1 REVERT JUMPDEST SWAP2 SWAP1 POP JUMP JUMPDEST PUSH1 0x0 DUP1 PUSH1 0x40 DUP4 DUP6 SUB SLT ISZERO PUSH2 0x684 JUMPI PUSH1 0x0 DUP1 REVERT JUMPDEST PUSH2 0x68D DUP4 PUSH2 0x655 JUMP JUMPDEST SWAP5 PUSH1 0x20 SWAP4 SWAP1 SWAP4 ADD CALLDATALOAD SWAP4 POP POP POP JUMP JUMPDEST PUSH1 0x0 PUSH1 0x20 DUP3 DUP5 SUB SLT ISZERO PUSH2 0x6AD JUMPI PUSH1 0x0 DUP1 REVERT JUMPDEST PUSH2 0x6B6 DUP3 PUSH2 0x655 JUMP JUMPDEST SWAP4 SWAP3 POP POP POP JUMP JUMPDEST DUP1 DUP3 MUL DUP2 ISZERO DUP3 DUP3 DIV DUP5 EQ OR PUSH2 0x6E2 JUMPI PUSH4 0x4E487B71 PUSH1 0xE0 SHL PUSH1 0x0 MSTORE PUSH1 0x11 PUSH1 0x4 MSTORE PUSH1 0x24 PUSH1 0x0 REVERT JUMPDEST SWAP3 SWAP2 POP POP JUMP JUMPDEST PUSH1 0x0 DUP3 PUSH2 0x705 JUMPI PUSH4 0x4E487B71 PUSH1 0xE0 SHL PUSH1 0x0 MSTORE PUSH1 0x12 PUSH1 0x4 MSTORE PUSH1 0x24 PUSH1 0x0 REVERT JUMPDEST POP DIV SWAP1 JUMP JUMPDEST PUSH1 0x20 DUP1 DUP3 MSTORE DUP2 DUP2 ADD MSTORE PUSH32 0x4F776E61626C653A2063616C6C6572206973206E6F7420746865206F776E6572 PUSH1 0x40 DUP3 ADD MSTORE PUSH1 0x60 ADD SWAP1 JUMP JUMPDEST PUSH1 0x0 PUSH1 0x20 DUP3 DUP5 SUB SLT ISZERO PUSH2 0x751 JUMPI PUSH1 0x0 DUP1 REVERT JUMPDEST POP MLOAD SWAP2 SWAP1 POP JUMP JUMPDEST PUSH1 0x0 PUSH1 0x20 DUP3 DUP5 SUB SLT ISZERO PUSH2 0x76A JUMPI PUSH1 0x0 DUP1 REVERT JUMPDEST DUP2 MLOAD DUP1 ISZERO ISZERO DUP2 EQ PUSH2 0x6B6 JUMPI PUSH1 0x0 DUP1 REVERT JUMPDEST DUP1 MLOAD PUSH10 0xFFFFFFFFFFFFFFFFFFFF DUP2 AND DUP2 EQ PUSH2 0x66C JUMPI PUSH1 0x0 DUP1 REVERT JUMPDEST PUSH1 0x0 DUP1 PUSH1 0x0 DUP1 PUSH1 0x0 PUSH1 0xA0 DUP7 DUP9 SUB SLT ISZERO PUSH2 0x7AC JUMPI PUSH1 0x0 DUP1 REVERT JUMPDEST PUSH2 0x7B5 DUP7 PUSH2 0x77A JUMP JUMPDEST SWAP5 POP PUSH1 0x20 DUP7 ADD MLOAD SWAP4 POP PUSH1 0x40 DUP7 ADD MLOAD SWAP3 POP PUSH1 0x60 DUP7 ADD MLOAD SWAP2 POP PUSH2 0x7D8 PUSH1 0x80 DUP8 ADD PUSH2 0x77A JUMP JUMPDEST SWAP1 POP SWAP3 SWAP6 POP SWAP3 SWAP6 SWAP1 SWAP4 POP JUMP INVALID LOG2 PUSH5 0x6970667358 0x22 SLT KECCAK256 0xF7 SWAP16 0xEA PUSH12 0x814AF7AA1F15A94BD1CF1272 EQ 0xCB DUP15 SELFDESTRUCT BALANCE SWAP7 SWAP4 SDIV 0xDB PUSH22 0xE04DD5AEFC2364736F6C634300081100330000000000 ","sha1":"b853239b9b0e559155d31bd5beb1f2e02e3c70ec","source":"// pragma solidity >=0.6.0;\n\n// import \"@chainlink/contracts/src/v0.6/interfaces/AggregatorV3Interface.sol\";\n// import \"@openzeppelin/contracts/access/Ownable.sol\";\n\n// // interface Prot{\n// //     function decimals() external view returns (uint8);\n// //     function transfer(address to, uint256 amount) external returns (bool);\n// //     function balanceOf(address account) external view returns (uint256);\n// // }\n\n// contract BuyToken is Ownable{\n//     // Prot prot;\n//     uint256 priceInUsd; \n//     // address createTokenAddress;\n//     AggregatorV3Interface internal priceFeed;\n\n//     // The price of our token is defined by the variable _priceInUsd.\n//     // Since _priceInUsd is an uint256, this variable can't have 0.001 \n//     // as a value. That is, in this scenario our new token canÂ´t have \n//     // a price less than a usd dollar, unless... we SCALE it.\n\n//     // If we scale it by the factor 10^18, we would have \n//     // that 0.001 * 10^18 = 10^15 = 1000000000000000 (15 zeros).\n    \n//     // Thus if we set _priceInUsd = 1000000000000000 (15 zeros), it would mean that \n//     // we are setting a price of 0.001 usd for our new token.\n\n//     // Why 18, because 18 is the number of decimals of our new token.\n    \n//     // constructor (address _createTokenAddress, uint256 _priceInUsd) {\n//     //     createTokenAddress = _createTokenAddress;\n//     //     prot = Prot(_createTokenAddress);\n//     //     priceFeed = AggregatorV3Interface(0xD4a33860578De61DBAbDc8BFdb98FD742fA7028e);\n//     //     updatePriceInUsd(_priceInUsd);\n//     // }\n\n//     constructor () {\n//         // createTokenAddress = _createTokenAddress;\n//         // prot = Prot(_createTokenAddress);\n//         priceFeed = AggregatorV3Interface(0xD4a33860578De61DBAbDc8BFdb98FD742fA7028e);\n//         updatePriceInUsd(10000000000000000);\n        \n//     }\n\n//     /*\n//     function instanceCreateToken(address _createTokenAddress) public {\n//         createTokenAddress = _createTokenAddress;\n//         prot = Prot(_createTokenAddress);\n//     }\n//     */\n\n//     // This function will be used for setting the initial price of\n//     // our new token and for updating futures prices of the token.\n//     function updatePriceInUsd(uint256 _priceInUsd) public onlyOwner{\n//         require(_priceInUsd*10**8 >= getLatestPrice(), \"Hint, put a price > 10000 (=0.00000000000001 usd)\");\n//         priceInUsd = _priceInUsd;\n//     }\n\n//     // Let webAppNumTokens = 0.1, the number of tokens the user would like\n//     // to buy.\n\n//     // Then the variable webAppNumTokens (=0.1) in the frontend of the  \n//     // app must be multiply by the factor 10^18.\n\n//     // If we scale it by the factor 10^18, we would have \n//     // that 0.1 * 10^18 = 10^17 = 100000000000000000 (17 zeros).\n\n//     // Thus if we set numTokens = 100000000000000000 (17 zeros) in \n//     // our buyToken() function, it would mean that \n//     // the user is buying a quantity of 0.1 of our new token.\n    \n//     /*\n//     function buyToken(uint256 numTokens) public payable {\n//         require(msg.value >= priceInWei()*numTokens / (1*10**18), \"Not enought money!\");\n//         // require(prot.balanceOf(addr) >= numTokens, \"Asking more TOKENS than available\");\n//         prot.transfer(msg.sender, numTokens);\n//     }\n\n//     function getAvailableTokens() public view returns(uint256){\n//         return prot.balanceOf(createTokenAddress);\n//     }\n//     */\n\n//     function getLatestPrice() public view returns(uint256){\n//         (,int latestPrice,,,) = priceFeed.latestRoundData();\n//         return uint256(latestPrice);\n//     }\n\n//     /*\n//     1 ETH --> 1*10^18 WEIs --> (latestPrice/18^8)  (1) latestPrice is already multiplied by 10^8\n//                  x    WEIs --> (priceInUsd/10^18)  (2) priceInUsd is already multiplied by 10^18\n\n//     despejando x = priceInUsd * 10^8 / latestPrice\n//     */\n//     function priceInWei() public view returns(uint256){\n//         return (((priceInUsd)*(1*10**8)) / getLatestPrice());\n//     }\n\n// }\n\n// // 0xC15099c7c260aF4a77f1541Db3Dd9BfBCAbaF81D\n\n// // Examples of input values for the function: updatePriceInUsd() :\n// // 0.001 usd * 10^18 = 1000000000000000 (15 zeros)\n// // 0.00000001 usd * 10^18 = 10000000000 (10 zeros)\n// // 0.00000000000001 usd * 10^18 = 10000 (4 zeros)\n\n\n// SPDX-License-Identifier: MIT\n\npragma solidity >=0.6.0;\n\nimport \"@chainlink/contracts/src/v0.6/interfaces/AggregatorV3Interface.sol\";\nimport \"@openzeppelin/contracts/access/Ownable.sol\";\nimport \"@openzeppelin/contracts/token/ERC20/IERC20.sol\";\n\ncontract BuyToken is Ownable{\n    IERC20 newToken;\n    uint256 priceInUsd; \n    address createTokenAddress;\n    AggregatorV3Interface internal priceFeed;\n\n    // The price of our token is defined by the variable _priceInUsd.\n    // Since _priceInUsd is an uint256, this variable can't have 0.001 \n    // as a value. That is, in this scenario our new token canÂ´t have \n    // a price less than a usd dollar, unless... we SCALE it.\n\n    // If we scale it by the factor 10^18, we would have \n    // that 0.001 * 10^18 = 10^15 = 1000000000000000 (15 zeros).\n    \n    // Thus if we set _priceInUsd = 1000000000000000 (15 zeros), it would mean that \n    // we are setting a price of 0.001 usd for our new token.\n\n    // Why 18, because 18 is the number of decimals of our new token.\n    \n    constructor(uint256 _priceInUsd, address _createTokenAddress, address _priceFeed) {\n        createTokenAddress = _createTokenAddress;\n        newToken = IERC20(_createTokenAddress);\n        priceFeed = AggregatorV3Interface(_priceFeed);\n        updatePriceInUsd(_priceInUsd);\n    }\n\n    // This function will be used for setting the initial price of\n    // our new token and for updating futures prices of the token.\n    \n    function updatePriceInUsd(uint256 _priceInUsd) public onlyOwner{\n        require(_priceInUsd*10**8 >= getLatestPrice(), \"Hint, put a price > 10000 (=0.00000000000001 usd)\");\n        priceInUsd = _priceInUsd;\n    }\n\n    // Let webAppNumTokens = 0.1, the number of tokens the user would like\n    // to buy.\n\n    // Then the variable webAppNumTokens (=0.1) in the frontend of the  \n    // app must be multiply by the factor 10^18.\n\n    // If we scale it by the factor 10^18, we would have \n    // that 0.1 * 10^18 = 10^17 = 100000000000000000 (17 zeros).\n\n    // Thus if we set numTokens = 100000000000000000 (17 zeros) in \n    // our buyToken() function, it would mean that \n    // the user is buying a quantity of 0.1 of our new token.\n    \n    function buyToken(address _to, uint256 numTokens) public payable {\n    // function buyToken(address _to, uint256 numTokens) public {\n        require(msg.value >= priceInWei()*numTokens /(1*10**18), \"Not enought money!\");\n        require(newToken.balanceOf(owner()) >= numTokens, \"Asking more TOKENS than available\");\n\n        newToken.transferFrom(msg.sender, _to, numTokens);\n        // newToken.transfer(_to, numTokens);\n\n    }\n\n\n    function getAvailableTokens() public view returns(uint256){\n        return newToken.balanceOf(owner());\n    }\n    \n    function getLatestPrice() public view returns(uint256){\n        (,int latestPrice,,,) = priceFeed.latestRoundData();\n        return uint256(latestPrice);\n    }\n\n    /*\n    1 ETH --> 1*10^18 WEIs --> (latestPrice/18^8)  (1) latestPrice is already multiplied by 10^8\n                 x    WEIs --> (priceInUsd/10^18)  (2) priceInUsd is already multiplied by 10^18\n\n    despejando x = priceInUsd * 10^8 / latestPrice\n    */\n    \n    function priceInWei() public view returns(uint256){\n        return (((priceInUsd)*(1*10**8)) / getLatestPrice());\n    }\n\n}\n\n// 0xC15099c7c260aF4a77f1541Db3Dd9BfBCAbaF81D\n\n// Examples of input values for the function: updatePriceInUsd() :\n// 0.001 usd * 10^18 = 1000000000000000 (15 zeros)\n// 0.00000001 usd * 10^18 = 10000000000 (10 zeros)\n// 0.00000000000001 usd * 10^18 = 10000 (4 zeros)\n","sourcePath":"contracts/BuyToken.sol","type":"contract","deployment":{"address":"0x9e5901020cD818b2128A9E2AE4E8197e3feA38eC","chainid":"5","blockHeight":7853067}}