{"abi":[{"inputs":[{"internalType":"address","name":"_tokenAddress","type":"address"},{"internalType":"uint16","name":"_interestRate","type":"uint16"},{"internalType":"address","name":"_priceFeed","type":"address"},{"internalType":"uint256","name":"_minStakingDays","type":"uint256"}],"stateMutability":"nonpayable","type":"constructor","name":"constructor"},{"anonymous":false,"inputs":[{"indexed":true,"internalType":"address","name":"from","type":"address"},{"indexed":false,"internalType":"uint256","name":"amount","type":"uint256"}],"name":"Claimed","type":"event"},{"anonymous":false,"inputs":[{"indexed":true,"internalType":"address","name":"previousOwner","type":"address"},{"indexed":true,"internalType":"address","name":"newOwner","type":"address"}],"name":"OwnershipTransferred","type":"event"},{"anonymous":false,"inputs":[{"indexed":false,"internalType":"address","name":"account","type":"address"}],"name":"Paused","type":"event"},{"anonymous":false,"inputs":[{"indexed":true,"internalType":"address","name":"from","type":"address"},{"indexed":false,"internalType":"uint256","name":"amount","type":"uint256"}],"name":"Staked","type":"event"},{"anonymous":false,"inputs":[{"indexed":false,"internalType":"address","name":"account","type":"address"}],"name":"Unpaused","type":"event"},{"inputs":[{"internalType":"address","name":"","type":"address"}],"name":"addressStaked","outputs":[{"internalType":"bool","name":"","type":"bool"}],"stateMutability":"view","type":"function"},{"inputs":[{"internalType":"address","name":"_to","type":"address"}],"name":"claimReward","outputs":[{"internalType":"bool","name":"","type":"bool"}],"stateMutability":"nonpayable","type":"function"},{"inputs":[{"internalType":"address","name":"_user","type":"address"}],"name":"getAmountStaked","outputs":[{"internalType":"uint256","name":"","type":"uint256"}],"stateMutability":"view","type":"function"},{"inputs":[],"name":"getInterestRate","outputs":[{"internalType":"uint256","name":"","type":"uint256"}],"stateMutability":"view","type":"function"},{"inputs":[],"name":"getLatestPrice","outputs":[{"internalType":"uint256","name":"","type":"uint256"}],"stateMutability":"view","type":"function"},{"inputs":[],"name":"getTokenExpiry","outputs":[{"internalType":"uint256","name":"","type":"uint256"}],"stateMutability":"view","type":"function"},{"inputs":[{"internalType":"uint256","name":"newMicroTokensToStake","type":"uint256"}],"name":"increaseStaking","outputs":[],"stateMutability":"nonpayable","type":"function"},{"inputs":[],"name":"interestRate","outputs":[{"internalType":"uint16","name":"","type":"uint16"}],"stateMutability":"view","type":"function"},{"inputs":[],"name":"minStakingDays","outputs":[{"internalType":"uint256","name":"","type":"uint256"}],"stateMutability":"view","type":"function"},{"inputs":[],"name":"owner","outputs":[{"internalType":"address","name":"","type":"address"}],"stateMutability":"view","type":"function"},{"inputs":[],"name":"pause","outputs":[],"stateMutability":"nonpayable","type":"function"},{"inputs":[],"name":"paused","outputs":[{"internalType":"bool","name":"","type":"bool"}],"stateMutability":"view","type":"function"},{"inputs":[],"name":"renounceOwnership","outputs":[],"stateMutability":"nonpayable","type":"function"},{"inputs":[{"internalType":"uint16","name":"_interestRate","type":"uint16"}],"name":"setInterestRate","outputs":[],"stateMutability":"nonpayable","type":"function"},{"inputs":[{"internalType":"address","name":"","type":"address"}],"name":"stakeInfos","outputs":[{"internalType":"uint256","name":"startTS","type":"uint256"},{"internalType":"uint256","name":"endTS","type":"uint256"},{"internalType":"uint256","name":"amount","type":"uint256"},{"internalType":"uint256","name":"stakingDays","type":"uint256"},{"internalType":"uint256","name":"trueStakingTime","type":"uint256"},{"internalType":"bool","name":"claimed","type":"bool"},{"internalType":"uint256","name":"fee","type":"uint256"},{"internalType":"uint256","name":"interest","type":"uint256"},{"internalType":"uint256","name":"initialPrice","type":"uint256"},{"internalType":"uint256","name":"finalPrice","type":"uint256"},{"internalType":"uint256","name":"finalAmount","type":"uint256"}],"stateMutability":"view","type":"function"},{"inputs":[{"internalType":"uint256","name":"microTokensToStake","type":"uint256"}],"name":"stakeToken","outputs":[],"stateMutability":"payable","type":"function"},{"inputs":[{"internalType":"address","name":"_user","type":"address"}],"name":"tokenCalculationToCoverDepreciation","outputs":[{"internalType":"uint256","name":"","type":"uint256"}],"stateMutability":"view","type":"function"},{"inputs":[],"name":"totalStakers","outputs":[{"internalType":"uint8","name":"","type":"uint8"}],"stateMutability":"view","type":"function"},{"inputs":[{"internalType":"address","name":"newOwner","type":"address"}],"name":"transferOwnership","outputs":[],"stateMutability":"nonpayable","type":"function"},{"inputs":[],"name":"unpause","outputs":[],"stateMutability":"nonpayable","type":"function"}],"bytecode":"60806040523480156200001157600080fd5b506040516200170c3803806200170c83398101604081905262000034916200020a565b6000805460ff19169055620000493362000110565b600180556001600160a01b038416620000b35760405162461bcd60e51b815260206004820152602160248201527f546f6b656e20416464726573732063616e6e6f742062652061646472657373206044820152600360fc1b60648201526084015b60405180910390fd5b600280546001600160a01b0319166001600160a01b038616179055620000d98362000169565b600380546001600160a01b0319166001600160a01b0393909316929092179091556005805460ff1916905560045550620002649050565b600080546001600160a01b03838116610100818102610100600160a81b0319851617855560405193049190911692909183917f8be0079c531659141344cd1fd0a4f28419497f9722a3daafe3b4186f6b6457e091a35050565b6000546001600160a01b03610100909104163314620001cb5760405162461bcd60e51b815260206004820181905260248201527f4f776e61626c653a2063616c6c6572206973206e6f7420746865206f776e65726044820152606401620000aa565b6003805461ffff909216600160a01b0261ffff60a01b19909216919091179055565b80516001600160a01b03811681146200020557600080fd5b919050565b600080600080608085870312156200022157600080fd5b6200022c85620001ed565b9350602085015161ffff811681146200024457600080fd5b92506200025460408601620001ed565b6060959095015193969295505050565b61149880620002746000396000f3fe60806040526004361061011f5760003560e01c806386989038116100a0578063cda6b84711610064578063cda6b8471461032c578063d279c1911461033f578063dfbf9def1461035f578063e74d059f1461042c578063f2fde38b1461045c57600080fd5b806386989038146102805780638da5cb5b146102ac5780638e15f473146102e25780639ffca906146102f7578063c8cf22501461030c57600080fd5b80635c975abb116100e75780635c975abb146101dd5780637050770614610201578063715018a6146102215780637c3a00fd146102365780638456cb591461026b57600080fd5b8063266de59c1461012457806333b88d15146101575780633f4ba83a1461016d5780635104c819146101845780635257b566146101bd575b600080fd5b34801561013057600080fd5b5061014461013f36600461129a565b61047c565b6040519081526020015b60405180910390f35b34801561016357600080fd5b5061014460045481565b34801561017957600080fd5b506101826104cf565b005b34801561019057600080fd5b5061014461019f36600461129a565b6001600160a01b031660009081526006602052604090206002015490565b3480156101c957600080fd5b50600354600160a01b900461ffff16610144565b3480156101e957600080fd5b5060005460ff165b604051901515815260200161014e565b34801561020d57600080fd5b5061018261021c3660046112ca565b610512565b34801561022d57600080fd5b50610182610564565b34801561024257600080fd5b5060035461025890600160a01b900461ffff1681565b60405161ffff909116815260200161014e565b34801561027757600080fd5b5061018261059e565b34801561028c57600080fd5b5060055461029a9060ff1681565b60405160ff909116815260200161014e565b3480156102b857600080fd5b5060005461010090046001600160a01b03166040516001600160a01b03909116815260200161014e565b3480156102ee57600080fd5b506101446105d6565b34801561030357600080fd5b5061014461065b565b34801561031857600080fd5b506101826103273660046112ee565b6106d1565b61018261033a3660046112ee565b61096f565b34801561034b57600080fd5b506101f161035a36600461129a565b610c5e565b34801561036b57600080fd5b506103d961037a36600461129a565b600660208190526000918252604090912080546001820154600283015460038401546004850154600586015496860154600787015460088801546009890154600a909901549799969895979496939560ff90941694929391929091908b565b604080519b8c5260208c019a909a52988a01979097526060890195909552608088019390935290151560a087015260c086015260e08501526101008401526101208301526101408201526101600161014e565b34801561043857600080fd5b506101f161044736600461129a565b60076020526000908152604090205460ff1681565b34801561046857600080fd5b5061018261047736600461129a565b610f15565b6001600160a01b038116600090815260066020526040812060028101546008820154600990920154909190806104b2818461131d565b6104bc9085611336565b6104c6919061134d565b95945050505050565b6000546001600160a01b036101009091041633146105085760405162461bcd60e51b81526004016104ff9061136f565b60405180910390fd5b610510610fb6565b565b6000546001600160a01b036101009091041633146105425760405162461bcd60e51b81526004016104ff9061136f565b6003805461ffff909216600160a01b0261ffff60a01b19909216919091179055565b6000546001600160a01b036101009091041633146105945760405162461bcd60e51b81526004016104ff9061136f565b6105106000611049565b6000546001600160a01b036101009091041633146105ce5760405162461bcd60e51b81526004016104ff9061136f565b6105106110a2565b600080600360009054906101000a90046001600160a01b03166001600160a01b031663feaf968c6040518163ffffffff1660e01b815260040160a060405180830381865afa15801561062c573d6000803e3d6000fd5b505050506040513d601f19601f8201168201806040525081019061065091906113be565b509195945050505050565b3360009081526007602052604081205460ff1615156001146106ba5760405162461bcd60e51b8152602060048201526018602482015277165bdd48185c99481b9bdd081c185c9d1a58da5c185d195960421b60448201526064016104ff565b503360009081526006602052604090206001015490565b600081116107215760405162461bcd60e51b815260206004820152601e60248201527f5374616b6520616d6f756e742073686f756c6420626520636f7272656374000060448201526064016104ff565b3360009081526007602052604090205460ff1661073d57600080fd5b336000908152600660205260409020544290610759908261131d565b336000908152600660205260409020600401556107746105d6565b3360008181526006602052604081206009810193909355600290920154919061079c9061111d565b6107a6908361140e565b905060006107b4858361140e565b905060006107c1826111c5565b6002549091506001600160a01b03166323b872dd336040516001600160e01b031960e084901b1681526001600160a01b039091166004820152306024820152604481018990526064016020604051808303816000875af1158015610829573d6000803e3d6000fd5b505050506040513d601f19601f8201168201806040525081019061084d9190611421565b506040518061016001604052804281526020016004544261086e919061140e565b81526020810184905260006040820181905260608201819052608082015260a08101839052600354600160a01b900461ffff1660c082015260e0016108b16105d6565b81526020016108be6105d6565b81526020016000815250600660006108d33390565b6001600160a01b031681526020808201929092526040908101600020835181559183015160018301558201516002820155606082015160038201556080820151600482015560a082015160058201805460ff191691151591909117905560c0820151600682015560e082015160078201556101008201516008820155610120820151600982015561014090910151600a90910155505050505050565b60005460ff16156109b55760405162461bcd60e51b815260206004820152601060248201526f14185d5cd8589b194e881c185d5cd95960821b60448201526064016104ff565b60008111610a055760405162461bcd60e51b815260206004820152601e60248201527f5374616b6520616d6f756e742073686f756c6420626520636f7272656374000060448201526064016104ff565b6002546001600160a01b03166323b872dd336040516001600160e01b031960e084901b1681526001600160a01b039091166004820152306024820152604481018490526064016020604051808303816000875af1158015610a6a573d6000803e3d6000fd5b505050506040513d601f19601f82011682018060405250810190610a8e9190611421565b506005805460ff16906000610aa283611443565b91906101000a81548160ff021916908360ff16021790555050600160076000610ac83390565b6001600160a01b0316815260208101919091526040016000908120805460ff191692151592909217909155610afc826111c5565b905060405180610160016040528042815260200160045442610b1e919061140e565b81526020810184905260006040820181905260608201819052608082015260a08101839052600354600160a01b900461ffff1660c082015260e001610b616105d6565b8152602001610b6e6105d6565b8152602001600081525060066000610b833390565b6001600160a01b031681526020808201929092526040908101600020835181559183015160018301558201516002820155606082015160038201556080820151600482015560a082015160058201805460ff191691151591909117905560c0820151600682015560e082015160078201556101008201516008820155610120820151600982015561014090910151600a90910155336001600160a01b03167f9e71bc8eea02a63969f509818f2dafb9254532904319f9dbda79b67bd34a5f3d83604051610c5291815260200190565b60405180910390a25050565b6001600160a01b038116600090815260076020526040812054429060ff161515600114610cc85760405162461bcd60e51b8152602060048201526018602482015277165bdd48185c99481b9bdd081c185c9d1a58da5c185d195960421b60448201526064016104ff565b6001600160a01b0383166000908152600660205260409020600101548111610d325760405162461bcd60e51b815260206004820152601a60248201527f5374616b652054696d65206973206e6f74206f7665722079657400000000000060448201526064016104ff565b6001600160a01b03831660009081526006602052604090206005015460ff1615610d905760405162461bcd60e51b815260206004820152600f60248201526e105b1c9958591e4818db185a5b5959608a1b60448201526064016104ff565b6001600160a01b038316600090815260066020526040902054610db3908261131d565b6001600160a01b038416600090815260066020526040902060040155610dd76105d6565b6001600160a01b0384166000908152600660205260408120600981019290925560029091015490610e078561111d565b610e11908361140e565b6001600160a01b038681166000818152600660205260409081902060058101805460ff19166001179055600a01849055600254905163a9059cbb60e01b815260048101929092526024820184905292935091169063a9059cbb906044016020604051808303816000875af1158015610e8d573d6000803e3d6000fd5b505050506040513d601f19601f82011682018060405250810190610eb19190611421565b506001600160a01b03851660008181526006602052604080822060020191909155517fd8138f8a3f377c5259ca548e70e4c2de94f129f5a11036a15b69513cba2b426a90610f029084815260200190565b60405180910390a2506001949350505050565b6000546001600160a01b03610100909104163314610f455760405162461bcd60e51b81526004016104ff9061136f565b6001600160a01b038116610faa5760405162461bcd60e51b815260206004820152602660248201527f4f776e61626c653a206e6577206f776e657220697320746865207a65726f206160448201526564647265737360d01b60648201526084016104ff565b610fb381611049565b50565b60005460ff16610fff5760405162461bcd60e51b815260206004820152601460248201527314185d5cd8589b194e881b9bdd081c185d5cd95960621b60448201526064016104ff565b6000805460ff191690557f5db9ee0a495bf2e6ff9c91a7834c1ba4fdd244a5e8aa4e537bd38aeae4b073aa335b6040516001600160a01b03909116815260200160405180910390a1565b600080546001600160a01b03838116610100818102610100600160a81b0319851617855560405193049190911692909183917f8be0079c531659141344cd1fd0a4f28419497f9722a3daafe3b4186f6b6457e091a35050565b60005460ff16156110e85760405162461bcd60e51b815260206004820152601060248201526f14185d5cd8589b194e881c185d5cd95960821b60448201526064016104ff565b6000805460ff191660011790557f62e78cea01bee320cd4e420270b5ea74000d11b0c9f74754ebdbfc544b05a25861102c3390565b6001600160a01b038116600090815260066020526040812060088101546009909101548261114a8561047c565b9050600061115786611254565b90506000838510611178578183111561117157508161117b565b508061117b565b50805b6001600160a01b038716600090815260066020819052604090912001546103e8906111a69083611336565b6111b0919061134d565b6111ba908261131d565b979650505050505050565b600068056bc75e2d631000008210156111e057506001919050565b683635c9adc5dea000008210156111f95750600a919050565b69021e19e0c9bab240000082101561121357506014919050565b69152d02c7e14af680000082101561122d5750601e919050565b69d3c21bcecceda100000082101561124757506028919050565b506032919050565b919050565b6001600160a01b03811660009081526006602052604081206002810154600782015460049092015490919064496cebb800816112908486611336565b6104bc9190611336565b6000602082840312156112ac57600080fd5b81356001600160a01b03811681146112c357600080fd5b9392505050565b6000602082840312156112dc57600080fd5b813561ffff811681146112c357600080fd5b60006020828403121561130057600080fd5b5035919050565b634e487b7160e01b600052601160045260246000fd5b8181038181111561133057611330611307565b92915050565b808202811582820484141761133057611330611307565b60008261136a57634e487b7160e01b600052601260045260246000fd5b500490565b6020808252818101527f4f776e61626c653a2063616c6c6572206973206e6f7420746865206f776e6572604082015260600190565b805169ffffffffffffffffffff8116811461124f57600080fd5b600080600080600060a086880312156113d657600080fd5b6113df866113a4565b9450602086015193506040860151925060608601519150611402608087016113a4565b90509295509295909350565b8082018082111561133057611330611307565b60006020828403121561143357600080fd5b815180151581146112c357600080fd5b600060ff821660ff810361145957611459611307565b6001019291505056fea264697066735822122012a8867145c70a876970c5565bcb8ab901806b340a8857cc1f2edbcb31f7d34c64736f6c63430008110033","bytecodeSha1":"9697a9fbde6ac77f6b73658e624495b08677d9cc","compiler":{"evm_version":"istanbul","optimizer":{"enabled":true,"runs":200},"version":"0.8.17+commit.8df45f5f"},"contractName":"StakeToken","language":"Solidity","natspec":{"kind":"dev","methods":{"owner()":{"details":"Returns the address of the current owner."},"paused()":{"details":"Returns true if the contract is paused, and false otherwise."},"renounceOwnership()":{"details":"Leaves the contract without owner. It will not be possible to call `onlyOwner` functions anymore. Can only be called by the current owner. NOTE: Renouncing ownership will leave the contract without an owner, thereby removing any functionality that is only available to the owner."},"transferOwnership(address)":{"details":"Transfers ownership of the contract to a new account (`newOwner`). Can only be called by the current owner."}},"version":1},"opcodes":"PUSH1 0x80 PUSH1 0x40 MSTORE PUSH1 0x4 CALLDATASIZE LT PUSH2 0x11F JUMPI PUSH1 0x0 CALLDATALOAD PUSH1 0xE0 SHR DUP1 PUSH4 0x86989038 GT PUSH2 0xA0 JUMPI DUP1 PUSH4 0xCDA6B847 GT PUSH2 0x64 JUMPI DUP1 PUSH4 0xCDA6B847 EQ PUSH2 0x32C JUMPI DUP1 PUSH4 0xD279C191 EQ PUSH2 0x33F JUMPI DUP1 PUSH4 0xDFBF9DEF EQ PUSH2 0x35F JUMPI DUP1 PUSH4 0xE74D059F EQ PUSH2 0x42C JUMPI DUP1 PUSH4 0xF2FDE38B EQ PUSH2 0x45C JUMPI PUSH1 0x0 DUP1 REVERT JUMPDEST DUP1 PUSH4 0x86989038 EQ PUSH2 0x280 JUMPI DUP1 PUSH4 0x8DA5CB5B EQ PUSH2 0x2AC JUMPI DUP1 PUSH4 0x8E15F473 EQ PUSH2 0x2E2 JUMPI DUP1 PUSH4 0x9FFCA906 EQ PUSH2 0x2F7 JUMPI DUP1 PUSH4 0xC8CF2250 EQ PUSH2 0x30C JUMPI PUSH1 0x0 DUP1 REVERT JUMPDEST DUP1 PUSH4 0x5C975ABB GT PUSH2 0xE7 JUMPI DUP1 PUSH4 0x5C975ABB EQ PUSH2 0x1DD JUMPI DUP1 PUSH4 0x70507706 EQ PUSH2 0x201 JUMPI DUP1 PUSH4 0x715018A6 EQ PUSH2 0x221 JUMPI DUP1 PUSH4 0x7C3A00FD EQ PUSH2 0x236 JUMPI DUP1 PUSH4 0x8456CB59 EQ PUSH2 0x26B JUMPI PUSH1 0x0 DUP1 REVERT JUMPDEST DUP1 PUSH4 0x266DE59C EQ PUSH2 0x124 JUMPI DUP1 PUSH4 0x33B88D15 EQ PUSH2 0x157 JUMPI DUP1 PUSH4 0x3F4BA83A EQ PUSH2 0x16D JUMPI DUP1 PUSH4 0x5104C819 EQ PUSH2 0x184 JUMPI DUP1 PUSH4 0x5257B566 EQ PUSH2 0x1BD JUMPI JUMPDEST PUSH1 0x0 DUP1 REVERT JUMPDEST CALLVALUE DUP1 ISZERO PUSH2 0x130 JUMPI PUSH1 0x0 DUP1 REVERT JUMPDEST POP PUSH2 0x144 PUSH2 0x13F CALLDATASIZE PUSH1 0x4 PUSH2 0x129A JUMP JUMPDEST PUSH2 0x47C JUMP JUMPDEST PUSH1 0x40 MLOAD SWAP1 DUP2 MSTORE PUSH1 0x20 ADD JUMPDEST PUSH1 0x40 MLOAD DUP1 SWAP2 SUB SWAP1 RETURN JUMPDEST CALLVALUE DUP1 ISZERO PUSH2 0x163 JUMPI PUSH1 0x0 DUP1 REVERT JUMPDEST POP PUSH2 0x144 PUSH1 0x4 SLOAD DUP2 JUMP JUMPDEST CALLVALUE DUP1 ISZERO PUSH2 0x179 JUMPI PUSH1 0x0 DUP1 REVERT JUMPDEST POP PUSH2 0x182 PUSH2 0x4CF JUMP JUMPDEST STOP JUMPDEST CALLVALUE DUP1 ISZERO PUSH2 0x190 JUMPI PUSH1 0x0 DUP1 REVERT JUMPDEST POP PUSH2 0x144 PUSH2 0x19F CALLDATASIZE PUSH1 0x4 PUSH2 0x129A JUMP JUMPDEST PUSH1 0x1 PUSH1 0x1 PUSH1 0xA0 SHL SUB AND PUSH1 0x0 SWAP1 DUP2 MSTORE PUSH1 0x6 PUSH1 0x20 MSTORE PUSH1 0x40 SWAP1 KECCAK256 PUSH1 0x2 ADD SLOAD SWAP1 JUMP JUMPDEST CALLVALUE DUP1 ISZERO PUSH2 0x1C9 JUMPI PUSH1 0x0 DUP1 REVERT JUMPDEST POP PUSH1 0x3 SLOAD PUSH1 0x1 PUSH1 0xA0 SHL SWAP1 DIV PUSH2 0xFFFF AND PUSH2 0x144 JUMP JUMPDEST CALLVALUE DUP1 ISZERO PUSH2 0x1E9 JUMPI PUSH1 0x0 DUP1 REVERT JUMPDEST POP PUSH1 0x0 SLOAD PUSH1 0xFF AND JUMPDEST PUSH1 0x40 MLOAD SWAP1 ISZERO ISZERO DUP2 MSTORE PUSH1 0x20 ADD PUSH2 0x14E JUMP JUMPDEST CALLVALUE DUP1 ISZERO PUSH2 0x20D JUMPI PUSH1 0x0 DUP1 REVERT JUMPDEST POP PUSH2 0x182 PUSH2 0x21C CALLDATASIZE PUSH1 0x4 PUSH2 0x12CA JUMP JUMPDEST PUSH2 0x512 JUMP JUMPDEST CALLVALUE DUP1 ISZERO PUSH2 0x22D JUMPI PUSH1 0x0 DUP1 REVERT JUMPDEST POP PUSH2 0x182 PUSH2 0x564 JUMP JUMPDEST CALLVALUE DUP1 ISZERO PUSH2 0x242 JUMPI PUSH1 0x0 DUP1 REVERT JUMPDEST POP PUSH1 0x3 SLOAD PUSH2 0x258 SWAP1 PUSH1 0x1 PUSH1 0xA0 SHL SWAP1 DIV PUSH2 0xFFFF AND DUP2 JUMP JUMPDEST PUSH1 0x40 MLOAD PUSH2 0xFFFF SWAP1 SWAP2 AND DUP2 MSTORE PUSH1 0x20 ADD PUSH2 0x14E JUMP JUMPDEST CALLVALUE DUP1 ISZERO PUSH2 0x277 JUMPI PUSH1 0x0 DUP1 REVERT JUMPDEST POP PUSH2 0x182 PUSH2 0x59E JUMP JUMPDEST CALLVALUE DUP1 ISZERO PUSH2 0x28C JUMPI PUSH1 0x0 DUP1 REVERT JUMPDEST POP PUSH1 0x5 SLOAD PUSH2 0x29A SWAP1 PUSH1 0xFF AND DUP2 JUMP JUMPDEST PUSH1 0x40 MLOAD PUSH1 0xFF SWAP1 SWAP2 AND DUP2 MSTORE PUSH1 0x20 ADD PUSH2 0x14E JUMP JUMPDEST CALLVALUE DUP1 ISZERO PUSH2 0x2B8 JUMPI PUSH1 0x0 DUP1 REVERT JUMPDEST POP PUSH1 0x0 SLOAD PUSH2 0x100 SWAP1 DIV PUSH1 0x1 PUSH1 0x1 PUSH1 0xA0 SHL SUB AND PUSH1 0x40 MLOAD PUSH1 0x1 PUSH1 0x1 PUSH1 0xA0 SHL SUB SWAP1 SWAP2 AND DUP2 MSTORE PUSH1 0x20 ADD PUSH2 0x14E JUMP JUMPDEST CALLVALUE DUP1 ISZERO PUSH2 0x2EE JUMPI PUSH1 0x0 DUP1 REVERT JUMPDEST POP PUSH2 0x144 PUSH2 0x5D6 JUMP JUMPDEST CALLVALUE DUP1 ISZERO PUSH2 0x303 JUMPI PUSH1 0x0 DUP1 REVERT JUMPDEST POP PUSH2 0x144 PUSH2 0x65B JUMP JUMPDEST CALLVALUE DUP1 ISZERO PUSH2 0x318 JUMPI PUSH1 0x0 DUP1 REVERT JUMPDEST POP PUSH2 0x182 PUSH2 0x327 CALLDATASIZE PUSH1 0x4 PUSH2 0x12EE JUMP JUMPDEST PUSH2 0x6D1 JUMP JUMPDEST PUSH2 0x182 PUSH2 0x33A CALLDATASIZE PUSH1 0x4 PUSH2 0x12EE JUMP JUMPDEST PUSH2 0x96F JUMP JUMPDEST CALLVALUE DUP1 ISZERO PUSH2 0x34B JUMPI PUSH1 0x0 DUP1 REVERT JUMPDEST POP PUSH2 0x1F1 PUSH2 0x35A CALLDATASIZE PUSH1 0x4 PUSH2 0x129A JUMP JUMPDEST PUSH2 0xC5E JUMP JUMPDEST CALLVALUE DUP1 ISZERO PUSH2 0x36B JUMPI PUSH1 0x0 DUP1 REVERT JUMPDEST POP PUSH2 0x3D9 PUSH2 0x37A CALLDATASIZE PUSH1 0x4 PUSH2 0x129A JUMP JUMPDEST PUSH1 0x6 PUSH1 0x20 DUP2 SWAP1 MSTORE PUSH1 0x0 SWAP2 DUP3 MSTORE PUSH1 0x40 SWAP1 SWAP2 KECCAK256 DUP1 SLOAD PUSH1 0x1 DUP3 ADD SLOAD PUSH1 0x2 DUP4 ADD SLOAD PUSH1 0x3 DUP5 ADD SLOAD PUSH1 0x4 DUP6 ADD SLOAD PUSH1 0x5 DUP7 ADD SLOAD SWAP7 DUP7 ADD SLOAD PUSH1 0x7 DUP8 ADD SLOAD PUSH1 0x8 DUP9 ADD SLOAD PUSH1 0x9 DUP10 ADD SLOAD PUSH1 0xA SWAP1 SWAP10 ADD SLOAD SWAP8 SWAP10 SWAP7 SWAP9 SWAP6 SWAP8 SWAP5 SWAP7 SWAP4 SWAP6 PUSH1 0xFF SWAP1 SWAP5 AND SWAP5 SWAP3 SWAP4 SWAP2 SWAP3 SWAP1 SWAP2 SWAP1 DUP12 JUMP JUMPDEST PUSH1 0x40 DUP1 MLOAD SWAP12 DUP13 MSTORE PUSH1 0x20 DUP13 ADD SWAP11 SWAP1 SWAP11 MSTORE SWAP9 DUP11 ADD SWAP8 SWAP1 SWAP8 MSTORE PUSH1 0x60 DUP10 ADD SWAP6 SWAP1 SWAP6 MSTORE PUSH1 0x80 DUP9 ADD SWAP4 SWAP1 SWAP4 MSTORE SWAP1 ISZERO ISZERO PUSH1 0xA0 DUP8 ADD MSTORE PUSH1 0xC0 DUP7 ADD MSTORE PUSH1 0xE0 DUP6 ADD MSTORE PUSH2 0x100 DUP5 ADD MSTORE PUSH2 0x120 DUP4 ADD MSTORE PUSH2 0x140 DUP3 ADD MSTORE PUSH2 0x160 ADD PUSH2 0x14E JUMP JUMPDEST CALLVALUE DUP1 ISZERO PUSH2 0x438 JUMPI PUSH1 0x0 DUP1 REVERT JUMPDEST POP PUSH2 0x1F1 PUSH2 0x447 CALLDATASIZE PUSH1 0x4 PUSH2 0x129A JUMP JUMPDEST PUSH1 0x7 PUSH1 0x20 MSTORE PUSH1 0x0 SWAP1 DUP2 MSTORE PUSH1 0x40 SWAP1 KECCAK256 SLOAD PUSH1 0xFF AND DUP2 JUMP JUMPDEST CALLVALUE DUP1 ISZERO PUSH2 0x468 JUMPI PUSH1 0x0 DUP1 REVERT JUMPDEST POP PUSH2 0x182 PUSH2 0x477 CALLDATASIZE PUSH1 0x4 PUSH2 0x129A JUMP JUMPDEST PUSH2 0xF15 JUMP JUMPDEST PUSH1 0x1 PUSH1 0x1 PUSH1 0xA0 SHL SUB DUP2 AND PUSH1 0x0 SWAP1 DUP2 MSTORE PUSH1 0x6 PUSH1 0x20 MSTORE PUSH1 0x40 DUP2 KECCAK256 PUSH1 0x2 DUP2 ADD SLOAD PUSH1 0x8 DUP3 ADD SLOAD PUSH1 0x9 SWAP1 SWAP3 ADD SLOAD SWAP1 SWAP2 SWAP1 DUP1 PUSH2 0x4B2 DUP2 DUP5 PUSH2 0x131D JUMP JUMPDEST PUSH2 0x4BC SWAP1 DUP6 PUSH2 0x1336 JUMP JUMPDEST PUSH2 0x4C6 SWAP2 SWAP1 PUSH2 0x134D JUMP JUMPDEST SWAP6 SWAP5 POP POP POP POP POP JUMP JUMPDEST PUSH1 0x0 SLOAD PUSH1 0x1 PUSH1 0x1 PUSH1 0xA0 SHL SUB PUSH2 0x100 SWAP1 SWAP2 DIV AND CALLER EQ PUSH2 0x508 JUMPI PUSH1 0x40 MLOAD PUSH3 0x461BCD PUSH1 0xE5 SHL DUP2 MSTORE PUSH1 0x4 ADD PUSH2 0x4FF SWAP1 PUSH2 0x136F JUMP JUMPDEST PUSH1 0x40 MLOAD DUP1 SWAP2 SUB SWAP1 REVERT JUMPDEST PUSH2 0x510 PUSH2 0xFB6 JUMP JUMPDEST JUMP JUMPDEST PUSH1 0x0 SLOAD PUSH1 0x1 PUSH1 0x1 PUSH1 0xA0 SHL SUB PUSH2 0x100 SWAP1 SWAP2 DIV AND CALLER EQ PUSH2 0x542 JUMPI PUSH1 0x40 MLOAD PUSH3 0x461BCD PUSH1 0xE5 SHL DUP2 MSTORE PUSH1 0x4 ADD PUSH2 0x4FF SWAP1 PUSH2 0x136F JUMP JUMPDEST PUSH1 0x3 DUP1 SLOAD PUSH2 0xFFFF SWAP1 SWAP3 AND PUSH1 0x1 PUSH1 0xA0 SHL MUL PUSH2 0xFFFF PUSH1 0xA0 SHL NOT SWAP1 SWAP3 AND SWAP2 SWAP1 SWAP2 OR SWAP1 SSTORE JUMP JUMPDEST PUSH1 0x0 SLOAD PUSH1 0x1 PUSH1 0x1 PUSH1 0xA0 SHL SUB PUSH2 0x100 SWAP1 SWAP2 DIV AND CALLER EQ PUSH2 0x594 JUMPI PUSH1 0x40 MLOAD PUSH3 0x461BCD PUSH1 0xE5 SHL DUP2 MSTORE PUSH1 0x4 ADD PUSH2 0x4FF SWAP1 PUSH2 0x136F JUMP JUMPDEST PUSH2 0x510 PUSH1 0x0 PUSH2 0x1049 JUMP JUMPDEST PUSH1 0x0 SLOAD PUSH1 0x1 PUSH1 0x1 PUSH1 0xA0 SHL SUB PUSH2 0x100 SWAP1 SWAP2 DIV AND CALLER EQ PUSH2 0x5CE JUMPI PUSH1 0x40 MLOAD PUSH3 0x461BCD PUSH1 0xE5 SHL DUP2 MSTORE PUSH1 0x4 ADD PUSH2 0x4FF SWAP1 PUSH2 0x136F JUMP JUMPDEST PUSH2 0x510 PUSH2 0x10A2 JUMP JUMPDEST PUSH1 0x0 DUP1 PUSH1 0x3 PUSH1 0x0 SWAP1 SLOAD SWAP1 PUSH2 0x100 EXP SWAP1 DIV PUSH1 0x1 PUSH1 0x1 PUSH1 0xA0 SHL SUB AND PUSH1 0x1 PUSH1 0x1 PUSH1 0xA0 SHL SUB AND PUSH4 0xFEAF968C PUSH1 0x40 MLOAD DUP2 PUSH4 0xFFFFFFFF AND PUSH1 0xE0 SHL DUP2 MSTORE PUSH1 0x4 ADD PUSH1 0xA0 PUSH1 0x40 MLOAD DUP1 DUP4 SUB DUP2 DUP7 GAS STATICCALL ISZERO DUP1 ISZERO PUSH2 0x62C JUMPI RETURNDATASIZE PUSH1 0x0 DUP1 RETURNDATACOPY RETURNDATASIZE PUSH1 0x0 REVERT JUMPDEST POP POP POP POP PUSH1 0x40 MLOAD RETURNDATASIZE PUSH1 0x1F NOT PUSH1 0x1F DUP3 ADD AND DUP3 ADD DUP1 PUSH1 0x40 MSTORE POP DUP2 ADD SWAP1 PUSH2 0x650 SWAP2 SWAP1 PUSH2 0x13BE JUMP JUMPDEST POP SWAP2 SWAP6 SWAP5 POP POP POP POP POP JUMP JUMPDEST CALLER PUSH1 0x0 SWAP1 DUP2 MSTORE PUSH1 0x7 PUSH1 0x20 MSTORE PUSH1 0x40 DUP2 KECCAK256 SLOAD PUSH1 0xFF AND ISZERO ISZERO PUSH1 0x1 EQ PUSH2 0x6BA JUMPI PUSH1 0x40 MLOAD PUSH3 0x461BCD PUSH1 0xE5 SHL DUP2 MSTORE PUSH1 0x20 PUSH1 0x4 DUP3 ADD MSTORE PUSH1 0x18 PUSH1 0x24 DUP3 ADD MSTORE PUSH24 0x165BDD48185C99481B9BDD081C185C9D1A58DA5C185D1959 PUSH1 0x42 SHL PUSH1 0x44 DUP3 ADD MSTORE PUSH1 0x64 ADD PUSH2 0x4FF JUMP JUMPDEST POP CALLER PUSH1 0x0 SWAP1 DUP2 MSTORE PUSH1 0x6 PUSH1 0x20 MSTORE PUSH1 0x40 SWAP1 KECCAK256 PUSH1 0x1 ADD SLOAD SWAP1 JUMP JUMPDEST PUSH1 0x0 DUP2 GT PUSH2 0x721 JUMPI PUSH1 0x40 MLOAD PUSH3 0x461BCD PUSH1 0xE5 SHL DUP2 MSTORE PUSH1 0x20 PUSH1 0x4 DUP3 ADD MSTORE PUSH1 0x1E PUSH1 0x24 DUP3 ADD MSTORE PUSH32 0x5374616B6520616D6F756E742073686F756C6420626520636F72726563740000 PUSH1 0x44 DUP3 ADD MSTORE PUSH1 0x64 ADD PUSH2 0x4FF JUMP JUMPDEST CALLER PUSH1 0x0 SWAP1 DUP2 MSTORE PUSH1 0x7 PUSH1 0x20 MSTORE PUSH1 0x40 SWAP1 KECCAK256 SLOAD PUSH1 0xFF AND PUSH2 0x73D JUMPI PUSH1 0x0 DUP1 REVERT JUMPDEST CALLER PUSH1 0x0 SWAP1 DUP2 MSTORE PUSH1 0x6 PUSH1 0x20 MSTORE PUSH1 0x40 SWAP1 KECCAK256 SLOAD TIMESTAMP SWAP1 PUSH2 0x759 SWAP1 DUP3 PUSH2 0x131D JUMP JUMPDEST CALLER PUSH1 0x0 SWAP1 DUP2 MSTORE PUSH1 0x6 PUSH1 0x20 MSTORE PUSH1 0x40 SWAP1 KECCAK256 PUSH1 0x4 ADD SSTORE PUSH2 0x774 PUSH2 0x5D6 JUMP JUMPDEST CALLER PUSH1 0x0 DUP2 DUP2 MSTORE PUSH1 0x6 PUSH1 0x20 MSTORE PUSH1 0x40 DUP2 KECCAK256 PUSH1 0x9 DUP2 ADD SWAP4 SWAP1 SWAP4 SSTORE PUSH1 0x2 SWAP1 SWAP3 ADD SLOAD SWAP2 SWAP1 PUSH2 0x79C SWAP1 PUSH2 0x111D JUMP JUMPDEST PUSH2 0x7A6 SWAP1 DUP4 PUSH2 0x140E JUMP JUMPDEST SWAP1 POP PUSH1 0x0 PUSH2 0x7B4 DUP6 DUP4 PUSH2 0x140E JUMP JUMPDEST SWAP1 POP PUSH1 0x0 PUSH2 0x7C1 DUP3 PUSH2 0x11C5 JUMP JUMPDEST PUSH1 0x2 SLOAD SWAP1 SWAP2 POP PUSH1 0x1 PUSH1 0x1 PUSH1 0xA0 SHL SUB AND PUSH4 0x23B872DD CALLER PUSH1 0x40 MLOAD PUSH1 0x1 PUSH1 0x1 PUSH1 0xE0 SHL SUB NOT PUSH1 0xE0 DUP5 SWAP1 SHL AND DUP2 MSTORE PUSH1 0x1 PUSH1 0x1 PUSH1 0xA0 SHL SUB SWAP1 SWAP2 AND PUSH1 0x4 DUP3 ADD MSTORE ADDRESS PUSH1 0x24 DUP3 ADD MSTORE PUSH1 0x44 DUP2 ADD DUP10 SWAP1 MSTORE PUSH1 0x64 ADD PUSH1 0x20 PUSH1 0x40 MLOAD DUP1 DUP4 SUB DUP2 PUSH1 0x0 DUP8 GAS CALL ISZERO DUP1 ISZERO PUSH2 0x829 JUMPI RETURNDATASIZE PUSH1 0x0 DUP1 RETURNDATACOPY RETURNDATASIZE PUSH1 0x0 REVERT JUMPDEST POP POP POP POP PUSH1 0x40 MLOAD RETURNDATASIZE PUSH1 0x1F NOT PUSH1 0x1F DUP3 ADD AND DUP3 ADD DUP1 PUSH1 0x40 MSTORE POP DUP2 ADD SWAP1 PUSH2 0x84D SWAP2 SWAP1 PUSH2 0x1421 JUMP JUMPDEST POP PUSH1 0x40 MLOAD DUP1 PUSH2 0x160 ADD PUSH1 0x40 MSTORE DUP1 TIMESTAMP DUP2 MSTORE PUSH1 0x20 ADD PUSH1 0x4 SLOAD TIMESTAMP PUSH2 0x86E SWAP2 SWAP1 PUSH2 0x140E JUMP JUMPDEST DUP2 MSTORE PUSH1 0x20 DUP2 ADD DUP5 SWAP1 MSTORE PUSH1 0x0 PUSH1 0x40 DUP3 ADD DUP2 SWAP1 MSTORE PUSH1 0x60 DUP3 ADD DUP2 SWAP1 MSTORE PUSH1 0x80 DUP3 ADD MSTORE PUSH1 0xA0 DUP2 ADD DUP4 SWAP1 MSTORE PUSH1 0x3 SLOAD PUSH1 0x1 PUSH1 0xA0 SHL SWAP1 DIV PUSH2 0xFFFF AND PUSH1 0xC0 DUP3 ADD MSTORE PUSH1 0xE0 ADD PUSH2 0x8B1 PUSH2 0x5D6 JUMP JUMPDEST DUP2 MSTORE PUSH1 0x20 ADD PUSH2 0x8BE PUSH2 0x5D6 JUMP JUMPDEST DUP2 MSTORE PUSH1 0x20 ADD PUSH1 0x0 DUP2 MSTORE POP PUSH1 0x6 PUSH1 0x0 PUSH2 0x8D3 CALLER SWAP1 JUMP JUMPDEST PUSH1 0x1 PUSH1 0x1 PUSH1 0xA0 SHL SUB AND DUP2 MSTORE PUSH1 0x20 DUP1 DUP3 ADD SWAP3 SWAP1 SWAP3 MSTORE PUSH1 0x40 SWAP1 DUP2 ADD PUSH1 0x0 KECCAK256 DUP4 MLOAD DUP2 SSTORE SWAP2 DUP4 ADD MLOAD PUSH1 0x1 DUP4 ADD SSTORE DUP3 ADD MLOAD PUSH1 0x2 DUP3 ADD SSTORE PUSH1 0x60 DUP3 ADD MLOAD PUSH1 0x3 DUP3 ADD SSTORE PUSH1 0x80 DUP3 ADD MLOAD PUSH1 0x4 DUP3 ADD SSTORE PUSH1 0xA0 DUP3 ADD MLOAD PUSH1 0x5 DUP3 ADD DUP1 SLOAD PUSH1 0xFF NOT AND SWAP2 ISZERO ISZERO SWAP2 SWAP1 SWAP2 OR SWAP1 SSTORE PUSH1 0xC0 DUP3 ADD MLOAD PUSH1 0x6 DUP3 ADD SSTORE PUSH1 0xE0 DUP3 ADD MLOAD PUSH1 0x7 DUP3 ADD SSTORE PUSH2 0x100 DUP3 ADD MLOAD PUSH1 0x8 DUP3 ADD SSTORE PUSH2 0x120 DUP3 ADD MLOAD PUSH1 0x9 DUP3 ADD SSTORE PUSH2 0x140 SWAP1 SWAP2 ADD MLOAD PUSH1 0xA SWAP1 SWAP2 ADD SSTORE POP POP POP POP POP POP JUMP JUMPDEST PUSH1 0x0 SLOAD PUSH1 0xFF AND ISZERO PUSH2 0x9B5 JUMPI PUSH1 0x40 MLOAD PUSH3 0x461BCD PUSH1 0xE5 SHL DUP2 MSTORE PUSH1 0x20 PUSH1 0x4 DUP3 ADD MSTORE PUSH1 0x10 PUSH1 0x24 DUP3 ADD MSTORE PUSH16 0x14185D5CD8589B194E881C185D5CD959 PUSH1 0x82 SHL PUSH1 0x44 DUP3 ADD MSTORE PUSH1 0x64 ADD PUSH2 0x4FF JUMP JUMPDEST PUSH1 0x0 DUP2 GT PUSH2 0xA05 JUMPI PUSH1 0x40 MLOAD PUSH3 0x461BCD PUSH1 0xE5 SHL DUP2 MSTORE PUSH1 0x20 PUSH1 0x4 DUP3 ADD MSTORE PUSH1 0x1E PUSH1 0x24 DUP3 ADD MSTORE PUSH32 0x5374616B6520616D6F756E742073686F756C6420626520636F72726563740000 PUSH1 0x44 DUP3 ADD MSTORE PUSH1 0x64 ADD PUSH2 0x4FF JUMP JUMPDEST PUSH1 0x2 SLOAD PUSH1 0x1 PUSH1 0x1 PUSH1 0xA0 SHL SUB AND PUSH4 0x23B872DD CALLER PUSH1 0x40 MLOAD PUSH1 0x1 PUSH1 0x1 PUSH1 0xE0 SHL SUB NOT PUSH1 0xE0 DUP5 SWAP1 SHL AND DUP2 MSTORE PUSH1 0x1 PUSH1 0x1 PUSH1 0xA0 SHL SUB SWAP1 SWAP2 AND PUSH1 0x4 DUP3 ADD MSTORE ADDRESS PUSH1 0x24 DUP3 ADD MSTORE PUSH1 0x44 DUP2 ADD DUP5 SWAP1 MSTORE PUSH1 0x64 ADD PUSH1 0x20 PUSH1 0x40 MLOAD DUP1 DUP4 SUB DUP2 PUSH1 0x0 DUP8 GAS CALL ISZERO DUP1 ISZERO PUSH2 0xA6A JUMPI RETURNDATASIZE PUSH1 0x0 DUP1 RETURNDATACOPY RETURNDATASIZE PUSH1 0x0 REVERT JUMPDEST POP POP POP POP PUSH1 0x40 MLOAD RETURNDATASIZE PUSH1 0x1F NOT PUSH1 0x1F DUP3 ADD AND DUP3 ADD DUP1 PUSH1 0x40 MSTORE POP DUP2 ADD SWAP1 PUSH2 0xA8E SWAP2 SWAP1 PUSH2 0x1421 JUMP JUMPDEST POP PUSH1 0x5 DUP1 SLOAD PUSH1 0xFF AND SWAP1 PUSH1 0x0 PUSH2 0xAA2 DUP4 PUSH2 0x1443 JUMP JUMPDEST SWAP2 SWAP1 PUSH2 0x100 EXP DUP2 SLOAD DUP2 PUSH1 0xFF MUL NOT AND SWAP1 DUP4 PUSH1 0xFF AND MUL OR SWAP1 SSTORE POP POP PUSH1 0x1 PUSH1 0x7 PUSH1 0x0 PUSH2 0xAC8 CALLER SWAP1 JUMP JUMPDEST PUSH1 0x1 PUSH1 0x1 PUSH1 0xA0 SHL SUB AND DUP2 MSTORE PUSH1 0x20 DUP2 ADD SWAP2 SWAP1 SWAP2 MSTORE PUSH1 0x40 ADD PUSH1 0x0 SWAP1 DUP2 KECCAK256 DUP1 SLOAD PUSH1 0xFF NOT AND SWAP3 ISZERO ISZERO SWAP3 SWAP1 SWAP3 OR SWAP1 SWAP2 SSTORE PUSH2 0xAFC DUP3 PUSH2 0x11C5 JUMP JUMPDEST SWAP1 POP PUSH1 0x40 MLOAD DUP1 PUSH2 0x160 ADD PUSH1 0x40 MSTORE DUP1 TIMESTAMP DUP2 MSTORE PUSH1 0x20 ADD PUSH1 0x4 SLOAD TIMESTAMP PUSH2 0xB1E SWAP2 SWAP1 PUSH2 0x140E JUMP JUMPDEST DUP2 MSTORE PUSH1 0x20 DUP2 ADD DUP5 SWAP1 MSTORE PUSH1 0x0 PUSH1 0x40 DUP3 ADD DUP2 SWAP1 MSTORE PUSH1 0x60 DUP3 ADD DUP2 SWAP1 MSTORE PUSH1 0x80 DUP3 ADD MSTORE PUSH1 0xA0 DUP2 ADD DUP4 SWAP1 MSTORE PUSH1 0x3 SLOAD PUSH1 0x1 PUSH1 0xA0 SHL SWAP1 DIV PUSH2 0xFFFF AND PUSH1 0xC0 DUP3 ADD MSTORE PUSH1 0xE0 ADD PUSH2 0xB61 PUSH2 0x5D6 JUMP JUMPDEST DUP2 MSTORE PUSH1 0x20 ADD PUSH2 0xB6E PUSH2 0x5D6 JUMP JUMPDEST DUP2 MSTORE PUSH1 0x20 ADD PUSH1 0x0 DUP2 MSTORE POP PUSH1 0x6 PUSH1 0x0 PUSH2 0xB83 CALLER SWAP1 JUMP JUMPDEST PUSH1 0x1 PUSH1 0x1 PUSH1 0xA0 SHL SUB AND DUP2 MSTORE PUSH1 0x20 DUP1 DUP3 ADD SWAP3 SWAP1 SWAP3 MSTORE PUSH1 0x40 SWAP1 DUP2 ADD PUSH1 0x0 KECCAK256 DUP4 MLOAD DUP2 SSTORE SWAP2 DUP4 ADD MLOAD PUSH1 0x1 DUP4 ADD SSTORE DUP3 ADD MLOAD PUSH1 0x2 DUP3 ADD SSTORE PUSH1 0x60 DUP3 ADD MLOAD PUSH1 0x3 DUP3 ADD SSTORE PUSH1 0x80 DUP3 ADD MLOAD PUSH1 0x4 DUP3 ADD SSTORE PUSH1 0xA0 DUP3 ADD MLOAD PUSH1 0x5 DUP3 ADD DUP1 SLOAD PUSH1 0xFF NOT AND SWAP2 ISZERO ISZERO SWAP2 SWAP1 SWAP2 OR SWAP1 SSTORE PUSH1 0xC0 DUP3 ADD MLOAD PUSH1 0x6 DUP3 ADD SSTORE PUSH1 0xE0 DUP3 ADD MLOAD PUSH1 0x7 DUP3 ADD SSTORE PUSH2 0x100 DUP3 ADD MLOAD PUSH1 0x8 DUP3 ADD SSTORE PUSH2 0x120 DUP3 ADD MLOAD PUSH1 0x9 DUP3 ADD SSTORE PUSH2 0x140 SWAP1 SWAP2 ADD MLOAD PUSH1 0xA SWAP1 SWAP2 ADD SSTORE CALLER PUSH1 0x1 PUSH1 0x1 PUSH1 0xA0 SHL SUB AND PUSH32 0x9E71BC8EEA02A63969F509818F2DAFB9254532904319F9DBDA79B67BD34A5F3D DUP4 PUSH1 0x40 MLOAD PUSH2 0xC52 SWAP2 DUP2 MSTORE PUSH1 0x20 ADD SWAP1 JUMP JUMPDEST PUSH1 0x40 MLOAD DUP1 SWAP2 SUB SWAP1 LOG2 POP POP JUMP JUMPDEST PUSH1 0x1 PUSH1 0x1 PUSH1 0xA0 SHL SUB DUP2 AND PUSH1 0x0 SWAP1 DUP2 MSTORE PUSH1 0x7 PUSH1 0x20 MSTORE PUSH1 0x40 DUP2 KECCAK256 SLOAD TIMESTAMP SWAP1 PUSH1 0xFF AND ISZERO ISZERO PUSH1 0x1 EQ PUSH2 0xCC8 JUMPI PUSH1 0x40 MLOAD PUSH3 0x461BCD PUSH1 0xE5 SHL DUP2 MSTORE PUSH1 0x20 PUSH1 0x4 DUP3 ADD MSTORE PUSH1 0x18 PUSH1 0x24 DUP3 ADD MSTORE PUSH24 0x165BDD48185C99481B9BDD081C185C9D1A58DA5C185D1959 PUSH1 0x42 SHL PUSH1 0x44 DUP3 ADD MSTORE PUSH1 0x64 ADD PUSH2 0x4FF JUMP JUMPDEST PUSH1 0x1 PUSH1 0x1 PUSH1 0xA0 SHL SUB DUP4 AND PUSH1 0x0 SWAP1 DUP2 MSTORE PUSH1 0x6 PUSH1 0x20 MSTORE PUSH1 0x40 SWAP1 KECCAK256 PUSH1 0x1 ADD SLOAD DUP2 GT PUSH2 0xD32 JUMPI PUSH1 0x40 MLOAD PUSH3 0x461BCD PUSH1 0xE5 SHL DUP2 MSTORE PUSH1 0x20 PUSH1 0x4 DUP3 ADD MSTORE PUSH1 0x1A PUSH1 0x24 DUP3 ADD MSTORE PUSH32 0x5374616B652054696D65206973206E6F74206F76657220796574000000000000 PUSH1 0x44 DUP3 ADD MSTORE PUSH1 0x64 ADD PUSH2 0x4FF JUMP JUMPDEST PUSH1 0x1 PUSH1 0x1 PUSH1 0xA0 SHL SUB DUP4 AND PUSH1 0x0 SWAP1 DUP2 MSTORE PUSH1 0x6 PUSH1 0x20 MSTORE PUSH1 0x40 SWAP1 KECCAK256 PUSH1 0x5 ADD SLOAD PUSH1 0xFF AND ISZERO PUSH2 0xD90 JUMPI PUSH1 0x40 MLOAD PUSH3 0x461BCD PUSH1 0xE5 SHL DUP2 MSTORE PUSH1 0x20 PUSH1 0x4 DUP3 ADD MSTORE PUSH1 0xF PUSH1 0x24 DUP3 ADD MSTORE PUSH15 0x105B1C9958591E4818DB185A5B5959 PUSH1 0x8A SHL PUSH1 0x44 DUP3 ADD MSTORE PUSH1 0x64 ADD PUSH2 0x4FF JUMP JUMPDEST PUSH1 0x1 PUSH1 0x1 PUSH1 0xA0 SHL SUB DUP4 AND PUSH1 0x0 SWAP1 DUP2 MSTORE PUSH1 0x6 PUSH1 0x20 MSTORE PUSH1 0x40 SWAP1 KECCAK256 SLOAD PUSH2 0xDB3 SWAP1 DUP3 PUSH2 0x131D JUMP JUMPDEST PUSH1 0x1 PUSH1 0x1 PUSH1 0xA0 SHL SUB DUP5 AND PUSH1 0x0 SWAP1 DUP2 MSTORE PUSH1 0x6 PUSH1 0x20 MSTORE PUSH1 0x40 SWAP1 KECCAK256 PUSH1 0x4 ADD SSTORE PUSH2 0xDD7 PUSH2 0x5D6 JUMP JUMPDEST PUSH1 0x1 PUSH1 0x1 PUSH1 0xA0 SHL SUB DUP5 AND PUSH1 0x0 SWAP1 DUP2 MSTORE PUSH1 0x6 PUSH1 0x20 MSTORE PUSH1 0x40 DUP2 KECCAK256 PUSH1 0x9 DUP2 ADD SWAP3 SWAP1 SWAP3 SSTORE PUSH1 0x2 SWAP1 SWAP2 ADD SLOAD SWAP1 PUSH2 0xE07 DUP6 PUSH2 0x111D JUMP JUMPDEST PUSH2 0xE11 SWAP1 DUP4 PUSH2 0x140E JUMP JUMPDEST PUSH1 0x1 PUSH1 0x1 PUSH1 0xA0 SHL SUB DUP7 DUP2 AND PUSH1 0x0 DUP2 DUP2 MSTORE PUSH1 0x6 PUSH1 0x20 MSTORE PUSH1 0x40 SWAP1 DUP2 SWAP1 KECCAK256 PUSH1 0x5 DUP2 ADD DUP1 SLOAD PUSH1 0xFF NOT AND PUSH1 0x1 OR SWAP1 SSTORE PUSH1 0xA ADD DUP5 SWAP1 SSTORE PUSH1 0x2 SLOAD SWAP1 MLOAD PUSH4 0xA9059CBB PUSH1 0xE0 SHL DUP2 MSTORE PUSH1 0x4 DUP2 ADD SWAP3 SWAP1 SWAP3 MSTORE PUSH1 0x24 DUP3 ADD DUP5 SWAP1 MSTORE SWAP3 SWAP4 POP SWAP2 AND SWAP1 PUSH4 0xA9059CBB SWAP1 PUSH1 0x44 ADD PUSH1 0x20 PUSH1 0x40 MLOAD DUP1 DUP4 SUB DUP2 PUSH1 0x0 DUP8 GAS CALL ISZERO DUP1 ISZERO PUSH2 0xE8D JUMPI RETURNDATASIZE PUSH1 0x0 DUP1 RETURNDATACOPY RETURNDATASIZE PUSH1 0x0 REVERT JUMPDEST POP POP POP POP PUSH1 0x40 MLOAD RETURNDATASIZE PUSH1 0x1F NOT PUSH1 0x1F DUP3 ADD AND DUP3 ADD DUP1 PUSH1 0x40 MSTORE POP DUP2 ADD SWAP1 PUSH2 0xEB1 SWAP2 SWAP1 PUSH2 0x1421 JUMP JUMPDEST POP PUSH1 0x1 PUSH1 0x1 PUSH1 0xA0 SHL SUB DUP6 AND PUSH1 0x0 DUP2 DUP2 MSTORE PUSH1 0x6 PUSH1 0x20 MSTORE PUSH1 0x40 DUP1 DUP3 KECCAK256 PUSH1 0x2 ADD SWAP2 SWAP1 SWAP2 SSTORE MLOAD PUSH32 0xD8138F8A3F377C5259CA548E70E4C2DE94F129F5A11036A15B69513CBA2B426A SWAP1 PUSH2 0xF02 SWAP1 DUP5 DUP2 MSTORE PUSH1 0x20 ADD SWAP1 JUMP JUMPDEST PUSH1 0x40 MLOAD DUP1 SWAP2 SUB SWAP1 LOG2 POP PUSH1 0x1 SWAP5 SWAP4 POP POP POP POP JUMP JUMPDEST PUSH1 0x0 SLOAD PUSH1 0x1 PUSH1 0x1 PUSH1 0xA0 SHL SUB PUSH2 0x100 SWAP1 SWAP2 DIV AND CALLER EQ PUSH2 0xF45 JUMPI PUSH1 0x40 MLOAD PUSH3 0x461BCD PUSH1 0xE5 SHL DUP2 MSTORE PUSH1 0x4 ADD PUSH2 0x4FF SWAP1 PUSH2 0x136F JUMP JUMPDEST PUSH1 0x1 PUSH1 0x1 PUSH1 0xA0 SHL SUB DUP2 AND PUSH2 0xFAA JUMPI PUSH1 0x40 MLOAD PUSH3 0x461BCD PUSH1 0xE5 SHL DUP2 MSTORE PUSH1 0x20 PUSH1 0x4 DUP3 ADD MSTORE PUSH1 0x26 PUSH1 0x24 DUP3 ADD MSTORE PUSH32 0x4F776E61626C653A206E6577206F776E657220697320746865207A65726F2061 PUSH1 0x44 DUP3 ADD MSTORE PUSH6 0x646472657373 PUSH1 0xD0 SHL PUSH1 0x64 DUP3 ADD MSTORE PUSH1 0x84 ADD PUSH2 0x4FF JUMP JUMPDEST PUSH2 0xFB3 DUP2 PUSH2 0x1049 JUMP JUMPDEST POP JUMP JUMPDEST PUSH1 0x0 SLOAD PUSH1 0xFF AND PUSH2 0xFFF JUMPI PUSH1 0x40 MLOAD PUSH3 0x461BCD PUSH1 0xE5 SHL DUP2 MSTORE PUSH1 0x20 PUSH1 0x4 DUP3 ADD MSTORE PUSH1 0x14 PUSH1 0x24 DUP3 ADD MSTORE PUSH20 0x14185D5CD8589B194E881B9BDD081C185D5CD959 PUSH1 0x62 SHL PUSH1 0x44 DUP3 ADD MSTORE PUSH1 0x64 ADD PUSH2 0x4FF JUMP JUMPDEST PUSH1 0x0 DUP1 SLOAD PUSH1 0xFF NOT AND SWAP1 SSTORE PUSH32 0x5DB9EE0A495BF2E6FF9C91A7834C1BA4FDD244A5E8AA4E537BD38AEAE4B073AA CALLER JUMPDEST PUSH1 0x40 MLOAD PUSH1 0x1 PUSH1 0x1 PUSH1 0xA0 SHL SUB SWAP1 SWAP2 AND DUP2 MSTORE PUSH1 0x20 ADD PUSH1 0x40 MLOAD DUP1 SWAP2 SUB SWAP1 LOG1 JUMP JUMPDEST PUSH1 0x0 DUP1 SLOAD PUSH1 0x1 PUSH1 0x1 PUSH1 0xA0 SHL SUB DUP4 DUP2 AND PUSH2 0x100 DUP2 DUP2 MUL PUSH2 0x100 PUSH1 0x1 PUSH1 0xA8 SHL SUB NOT DUP6 AND OR DUP6 SSTORE PUSH1 0x40 MLOAD SWAP4 DIV SWAP2 SWAP1 SWAP2 AND SWAP3 SWAP1 SWAP2 DUP4 SWAP2 PUSH32 0x8BE0079C531659141344CD1FD0A4F28419497F9722A3DAAFE3B4186F6B6457E0 SWAP2 LOG3 POP POP JUMP JUMPDEST PUSH1 0x0 SLOAD PUSH1 0xFF AND ISZERO PUSH2 0x10E8 JUMPI PUSH1 0x40 MLOAD PUSH3 0x461BCD PUSH1 0xE5 SHL DUP2 MSTORE PUSH1 0x20 PUSH1 0x4 DUP3 ADD MSTORE PUSH1 0x10 PUSH1 0x24 DUP3 ADD MSTORE PUSH16 0x14185D5CD8589B194E881C185D5CD959 PUSH1 0x82 SHL PUSH1 0x44 DUP3 ADD MSTORE PUSH1 0x64 ADD PUSH2 0x4FF JUMP JUMPDEST PUSH1 0x0 DUP1 SLOAD PUSH1 0xFF NOT AND PUSH1 0x1 OR SWAP1 SSTORE PUSH32 0x62E78CEA01BEE320CD4E420270B5EA74000D11B0C9F74754EBDBFC544B05A258 PUSH2 0x102C CALLER SWAP1 JUMP JUMPDEST PUSH1 0x1 PUSH1 0x1 PUSH1 0xA0 SHL SUB DUP2 AND PUSH1 0x0 SWAP1 DUP2 MSTORE PUSH1 0x6 PUSH1 0x20 MSTORE PUSH1 0x40 DUP2 KECCAK256 PUSH1 0x8 DUP2 ADD SLOAD PUSH1 0x9 SWAP1 SWAP2 ADD SLOAD DUP3 PUSH2 0x114A DUP6 PUSH2 0x47C JUMP JUMPDEST SWAP1 POP PUSH1 0x0 PUSH2 0x1157 DUP7 PUSH2 0x1254 JUMP JUMPDEST SWAP1 POP PUSH1 0x0 DUP4 DUP6 LT PUSH2 0x1178 JUMPI DUP2 DUP4 GT ISZERO PUSH2 0x1171 JUMPI POP DUP2 PUSH2 0x117B JUMP JUMPDEST POP DUP1 PUSH2 0x117B JUMP JUMPDEST POP DUP1 JUMPDEST PUSH1 0x1 PUSH1 0x1 PUSH1 0xA0 SHL SUB DUP8 AND PUSH1 0x0 SWAP1 DUP2 MSTORE PUSH1 0x6 PUSH1 0x20 DUP2 SWAP1 MSTORE PUSH1 0x40 SWAP1 SWAP2 KECCAK256 ADD SLOAD PUSH2 0x3E8 SWAP1 PUSH2 0x11A6 SWAP1 DUP4 PUSH2 0x1336 JUMP JUMPDEST PUSH2 0x11B0 SWAP2 SWAP1 PUSH2 0x134D JUMP JUMPDEST PUSH2 0x11BA SWAP1 DUP3 PUSH2 0x131D JUMP JUMPDEST SWAP8 SWAP7 POP POP POP POP POP POP POP JUMP JUMPDEST PUSH1 0x0 PUSH9 0x56BC75E2D63100000 DUP3 LT ISZERO PUSH2 0x11E0 JUMPI POP PUSH1 0x1 SWAP2 SWAP1 POP JUMP JUMPDEST PUSH9 0x3635C9ADC5DEA00000 DUP3 LT ISZERO PUSH2 0x11F9 JUMPI POP PUSH1 0xA SWAP2 SWAP1 POP JUMP JUMPDEST PUSH10 0x21E19E0C9BAB2400000 DUP3 LT ISZERO PUSH2 0x1213 JUMPI POP PUSH1 0x14 SWAP2 SWAP1 POP JUMP JUMPDEST PUSH10 0x152D02C7E14AF6800000 DUP3 LT ISZERO PUSH2 0x122D JUMPI POP PUSH1 0x1E SWAP2 SWAP1 POP JUMP JUMPDEST PUSH10 0xD3C21BCECCEDA1000000 DUP3 LT ISZERO PUSH2 0x1247 JUMPI POP PUSH1 0x28 SWAP2 SWAP1 POP JUMP JUMPDEST POP PUSH1 0x32 SWAP2 SWAP1 POP JUMP JUMPDEST SWAP2 SWAP1 POP JUMP JUMPDEST PUSH1 0x1 PUSH1 0x1 PUSH1 0xA0 SHL SUB DUP2 AND PUSH1 0x0 SWAP1 DUP2 MSTORE PUSH1 0x6 PUSH1 0x20 MSTORE PUSH1 0x40 DUP2 KECCAK256 PUSH1 0x2 DUP2 ADD SLOAD PUSH1 0x7 DUP3 ADD SLOAD PUSH1 0x4 SWAP1 SWAP3 ADD SLOAD SWAP1 SWAP2 SWAP1 PUSH5 0x496CEBB800 DUP2 PUSH2 0x1290 DUP5 DUP7 PUSH2 0x1336 JUMP JUMPDEST PUSH2 0x4BC SWAP2 SWAP1 PUSH2 0x1336 JUMP JUMPDEST PUSH1 0x0 PUSH1 0x20 DUP3 DUP5 SUB SLT ISZERO PUSH2 0x12AC JUMPI PUSH1 0x0 DUP1 REVERT JUMPDEST DUP2 CALLDATALOAD PUSH1 0x1 PUSH1 0x1 PUSH1 0xA0 SHL SUB DUP2 AND DUP2 EQ PUSH2 0x12C3 JUMPI PUSH1 0x0 DUP1 REVERT JUMPDEST SWAP4 SWAP3 POP POP POP JUMP JUMPDEST PUSH1 0x0 PUSH1 0x20 DUP3 DUP5 SUB SLT ISZERO PUSH2 0x12DC JUMPI PUSH1 0x0 DUP1 REVERT JUMPDEST DUP2 CALLDATALOAD PUSH2 0xFFFF DUP2 AND DUP2 EQ PUSH2 0x12C3 JUMPI PUSH1 0x0 DUP1 REVERT JUMPDEST PUSH1 0x0 PUSH1 0x20 DUP3 DUP5 SUB SLT ISZERO PUSH2 0x1300 JUMPI PUSH1 0x0 DUP1 REVERT JUMPDEST POP CALLDATALOAD SWAP2 SWAP1 POP JUMP JUMPDEST PUSH4 0x4E487B71 PUSH1 0xE0 SHL PUSH1 0x0 MSTORE PUSH1 0x11 PUSH1 0x4 MSTORE PUSH1 0x24 PUSH1 0x0 REVERT JUMPDEST DUP2 DUP2 SUB DUP2 DUP2 GT ISZERO PUSH2 0x1330 JUMPI PUSH2 0x1330 PUSH2 0x1307 JUMP JUMPDEST SWAP3 SWAP2 POP POP JUMP JUMPDEST DUP1 DUP3 MUL DUP2 ISZERO DUP3 DUP3 DIV DUP5 EQ OR PUSH2 0x1330 JUMPI PUSH2 0x1330 PUSH2 0x1307 JUMP JUMPDEST PUSH1 0x0 DUP3 PUSH2 0x136A JUMPI PUSH4 0x4E487B71 PUSH1 0xE0 SHL PUSH1 0x0 MSTORE PUSH1 0x12 PUSH1 0x4 MSTORE PUSH1 0x24 PUSH1 0x0 REVERT JUMPDEST POP DIV SWAP1 JUMP JUMPDEST PUSH1 0x20 DUP1 DUP3 MSTORE DUP2 DUP2 ADD MSTORE PUSH32 0x4F776E61626C653A2063616C6C6572206973206E6F7420746865206F776E6572 PUSH1 0x40 DUP3 ADD MSTORE PUSH1 0x60 ADD SWAP1 JUMP JUMPDEST DUP1 MLOAD PUSH10 0xFFFFFFFFFFFFFFFFFFFF DUP2 AND DUP2 EQ PUSH2 0x124F JUMPI PUSH1 0x0 DUP1 REVERT JUMPDEST PUSH1 0x0 DUP1 PUSH1 0x0 DUP1 PUSH1 0x0 PUSH1 0xA0 DUP7 DUP9 SUB SLT ISZERO PUSH2 0x13D6 JUMPI PUSH1 0x0 DUP1 REVERT JUMPDEST PUSH2 0x13DF DUP7 PUSH2 0x13A4 JUMP JUMPDEST SWAP5 POP PUSH1 0x20 DUP7 ADD MLOAD SWAP4 POP PUSH1 0x40 DUP7 ADD MLOAD SWAP3 POP PUSH1 0x60 DUP7 ADD MLOAD SWAP2 POP PUSH2 0x1402 PUSH1 0x80 DUP8 ADD PUSH2 0x13A4 JUMP JUMPDEST SWAP1 POP SWAP3 SWAP6 POP SWAP3 SWAP6 SWAP1 SWAP4 POP JUMP JUMPDEST DUP1 DUP3 ADD DUP1 DUP3 GT ISZERO PUSH2 0x1330 JUMPI PUSH2 0x1330 PUSH2 0x1307 JUMP JUMPDEST PUSH1 0x0 PUSH1 0x20 DUP3 DUP5 SUB SLT ISZERO PUSH2 0x1433 JUMPI PUSH1 0x0 DUP1 REVERT JUMPDEST DUP2 MLOAD DUP1 ISZERO ISZERO DUP2 EQ PUSH2 0x12C3 JUMPI PUSH1 0x0 DUP1 REVERT JUMPDEST PUSH1 0x0 PUSH1 0xFF DUP3 AND PUSH1 0xFF DUP2 SUB PUSH2 0x1459 JUMPI PUSH2 0x1459 PUSH2 0x1307 JUMP JUMPDEST PUSH1 0x1 ADD SWAP3 SWAP2 POP POP JUMP INVALID LOG2 PUSH5 0x6970667358 0x22 SLT KECCAK256 SLT 0xA8 DUP7 PUSH18 0x45C70A876970C5565BCB8AB901806B340A88 JUMPI 0xCC 0x1F 0x2E 0xDB 0xCB BALANCE 0xF7 0xD3 0x4C PUSH5 0x736F6C6343 STOP ADDMOD GT STOP CALLER ","sha1":"8251b760112f1c9072b92deccf5ce32c6d225972","source":"// SPDX-License-Identifier: GPL-3.0-only\n\npragma solidity >=0.6.0;\n\nimport \"@openzeppelin/contracts/security/Pausable.sol\";\nimport \"@openzeppelin/contracts/access/Ownable.sol\";\nimport \"@openzeppelin/contracts/security/ReentrancyGuard.sol\";\nimport \"@openzeppelin/contracts/utils/Context.sol\";\nimport \"@chainlink/contracts/src/v0.6/interfaces/AggregatorV3Interface.sol\";\nimport \"@openzeppelin/contracts/token/ERC20/IERC20.sol\";\nimport \"@openzeppelin/contracts/token/ERC20/ERC20.sol\";\n\ncontract StakeToken is Pausable, Ownable, ReentrancyGuard {\n    IERC20 newToken;\n    AggregatorV3Interface internal priceFeed;\n\n    uint16 public interestRate;\n    uint256 public minStakingDays;\n\n    uint8 public totalStakers;\n\n    struct StakeInfo {        \n        uint256 startTS;\n        uint256 endTS;        \n        uint256 amount; \n        uint256 stakingDays;\n        uint256 trueStakingTime;\n        bool claimed;  \n        uint256 fee; \n        uint256 interest;   \n        uint256 initialPrice; \n        uint256 finalPrice; \n        uint256 finalAmount;\n    }\n    \n    event Staked(address indexed from, uint256 amount);\n    event Claimed(address indexed from, uint256 amount);\n    \n    mapping(address => StakeInfo) public stakeInfos;\n    mapping(address => bool) public addressStaked;\n\n    \n    constructor(address _tokenAddress, uint16 _interestRate, address _priceFeed, uint256 _minStakingDays) {\n        require(address(_tokenAddress) != address(0),\"Token Address cannot be address 0\");   \n        newToken = IERC20(_tokenAddress);\n        setInterestRate(_interestRate);\n        priceFeed = AggregatorV3Interface(_priceFeed);                   \n        totalStakers = 0;\n        minStakingDays = _minStakingDays;\n    }    \n\n\n    function getAmountStaked(address _user) public view returns(uint256) {\n        return stakeInfos[_user].amount;\n    }\n\n    function claimReward(address _to) external returns (bool){\n        uint256 currentTime = block.timestamp;\n        require(addressStaked[_to] == true, \"You are not participated\");\n        require(stakeInfos[_to].endTS < currentTime, \"Stake Time is not over yet\");\n        require(stakeInfos[_to].claimed == false, \"Already claimed\");\n\n        stakeInfos[_to].trueStakingTime = currentTime - stakeInfos[_to].startTS;\n        stakeInfos[_to].finalPrice = getLatestPrice();\n        uint256 stakeAmount = stakeInfos[_to].amount;\n        \n        uint256 totalTokens = stakeAmount + tokensToPay(_to);\n        \n        stakeInfos[_to].claimed = true;\n        stakeInfos[_to].finalAmount = totalTokens;\n        newToken.transfer(_to, totalTokens);\n        stakeInfos[_to].amount = 0;\n\n        emit Claimed(_to, totalTokens);\n\n        return true;\n    }\n\n\n    function getTokenExpiry() external view returns (uint256) {\n        require(addressStaked[_msgSender()] == true, \"You are not participated\");\n        return stakeInfos[_msgSender()].endTS;\n    }\n\n\n    // stakeAmount must be scale by a factor of 10^18, that is we are working with microTokensToStake\n    // function stakeToken(uint256 microTokensToStake, uint256 _stakingDays) external payable whenNotPaused {\n    function stakeToken(uint256 microTokensToStake) external payable whenNotPaused {\n        require(microTokensToStake >0, \"Stake amount should be correct\");\n        // require(_stakingDays >= minStakingDays , \"Staking days must be greaten than min expired\");\n        // require(addressStaked[_msgSender()] == false, \"You already participated\");\n        \n        newToken.transferFrom(_msgSender(), address(this), microTokensToStake);\n        totalStakers++;\n        addressStaked[_msgSender()] = true;\n        uint256 _fee = getFee(microTokensToStake);\n\n        stakeInfos[_msgSender()] = StakeInfo({                \n            startTS: block.timestamp,\n            endTS: block.timestamp + minStakingDays,\n            amount: microTokensToStake,\n            // stakingDays: _stakingDays,\n            stakingDays: 0,\n            trueStakingTime: 0,\n            claimed: false,\n            fee: _fee,\n            interest: interestRate,\n            initialPrice: getLatestPrice(),\n            finalPrice: getLatestPrice(),\n            finalAmount: 0\n        });\n        \n        emit Staked(_msgSender(), microTokensToStake);\n    }    \n\n    function increaseStaking(uint256 newMicroTokensToStake) public {\n        require(newMicroTokensToStake >0, \"Stake amount should be correct\");\n        require(addressStaked[_msgSender()]);\n        // cut previos staking amount and rewards \n        uint256 currentTime = block.timestamp;\n        stakeInfos[_msgSender()].trueStakingTime = currentTime - stakeInfos[_msgSender()].startTS;\n        stakeInfos[_msgSender()].finalPrice = getLatestPrice();\n        uint256 stakeAmount = stakeInfos[_msgSender()].amount;\n        uint256 totalTokens = stakeAmount + tokensToPay(_msgSender());\n        // add previos amount + rewards + newMicrotokensToStake\n        uint256 newAmount = totalTokens + newMicroTokensToStake;\n        uint256 _fee = getFee(newAmount);\n        newToken.transferFrom(_msgSender(), address(this), newMicroTokensToStake);\n\n        stakeInfos[_msgSender()] = StakeInfo({                \n            startTS: block.timestamp,\n            endTS: block.timestamp + minStakingDays,\n            amount: newAmount,\n            // stakingDays: _stakingDays,\n            stakingDays: 0,\n            trueStakingTime: 0,\n            claimed: false,\n            fee: _fee,\n            interest: interestRate,\n            initialPrice: getLatestPrice(),\n            finalPrice: getLatestPrice(),\n            finalAmount: 0\n        });\n    }\n\n\n    function pause() external onlyOwner {\n        _pause();\n    }\n\n    function unpause() external onlyOwner {\n        _unpause();\n    }\n\n    function getInterestRate() external view returns(uint256) {\n            return interestRate;\n    } \n\n    function setInterestRate(uint16 _interestRate) public onlyOwner{\n        interestRate = _interestRate;\n    }\n\n    function getFee(uint256 amount) internal pure returns(uint256) {\n        if (amount < 100 * 10**18) return 1;\n        if (amount < 1000 * 10**18) return 10;\n        if (amount < 10000 * 10**18) return 20;\n        if (amount < 100000 * 10**18) return 30;\n        if (amount < 1000000 * 10**18) return 40;\n        else return 50;\n    }\n    \n\n    function getLatestPrice() public view returns(uint256){\n        (,int latestPrice,,,) = priceFeed.latestRoundData();\n        return uint256(latestPrice);\n    }\n\n\n    function calculationOfTheAmountOfInterest(address _user) internal view returns(uint256){\n        uint256 _stakeAmount = stakeInfos[_user].amount;\n        uint256 _interestRate = stakeInfos[_user].interest;\n        uint256 _trueStakingTime = stakeInfos[_user].trueStakingTime;\n        return _stakeAmount * _interestRate * _trueStakingTime / (10000*365*24*60*60);\n    }\n\n    /*\n    Think a user buys certain AMOUNT of newTokens at a certain _initialPrice in usd.\n    Then after 90 days, suppose that such AMOUNT of newTokens is at certain _finalPrice in usd.\n\n    In the scenario where _finalPrice < _initialPrice we have a depretiation.\n\n    In this case, we need to cover the following quantity: _initialPrice - _finalPrice.\n\n    But we need to convert that quantity into our newToken. Thus we have the following\n    rule of three.\n\n    AMOUNT of newTokens     --->    _finalPrice\n        X  newTokens        --->    _initialPrice - _finalPrice\n\n    Solving for X we have the following formula:\n\n    X = (AMOUNT of newTokens) * (_initialPrice - _finalPrice) / _finalPrice\n\n    */\n\n\n    /*\n    Think a user buys 100 newTokens at 10 usd.\n    Then after 90 days, suppose that such 100 newTokens is at 9 usd.\n\n    In this case we have a depretiation.\n\n    In this case, we need to cover the following quantity: 10 usd - 9 usd = 1 usd.\n\n    But we need to convert that quantity into our newToken. Thus we have the following\n    rule of three.\n\n    100 newTokens     --->    9 usd\n    X  newTokens      --->    1 usd (this quantity is to cover depretiation)\n\n    Solving for X we have the following formula:\n\n    X = (100 newTokens) * (1 usd) / 9 usd\n\n    */\n    function tokenCalculationToCoverDepreciation(address _user) public view returns(uint256){\n        uint256 _stakeAmount = stakeInfos[_user].amount;\n        uint256 _initialPrice = stakeInfos[_user].initialPrice;\n        uint256 _finalPrice = stakeInfos[_user].finalPrice;\n        return (_stakeAmount*(_initialPrice - _finalPrice))/ _finalPrice;\n    }\n\n    function tokensToPay(address _user) internal view returns(uint256){\n        uint256 _initialPrice = stakeInfos[_user].initialPrice;\n        uint256 _finalPrice = stakeInfos[_user].finalPrice;\n        uint256 tokensNeededForDepreciation = tokenCalculationToCoverDepreciation(_user);\n        uint256 interestAmount = calculationOfTheAmountOfInterest(_user);\n        uint max;\n        if (_initialPrice >= _finalPrice){\n            if (tokensNeededForDepreciation > interestAmount){\n                max = tokensNeededForDepreciation;\n            } else {\n                max = interestAmount;\n            }\n        } else {\n            max = interestAmount;\n        } \n        max -= max * stakeInfos[_user].fee / 1000;\n        return max;\n    }\n    \n}\n\n// https://betterprogramming.pub/how-to-write-a-smart-contract-for-stake-the-token-a46fdb9221b6\n\n","sourcePath":"contracts/StakeToken.sol","type":"contract","deployment":{"address":"0xbE4F970cD354123aDE20bF460e008698E3745e66","chainid":"5","blockHeight":7965864}}